:100200000C946C2B0C94942B0C94942B0C94942B9A
:100210000C94942B0C94942B0C94942B0C94244AB3
:100220000C94942B0C94CD4A0C94942B0C94BC4AB3
:100230000C94942B0C94942B0C94942B0C94942B42
:100240000C94942B0C94942B0C948A490C94942B1E
:100250000C94942B0C94F4480C94EF480C94F948AB
:100260000C94942B0C94942B0C94942B0C94942B12
:100270000C94942B0C94942B0C94AC4A0C946249DF
:100280000C94942B0C94942B0C94942B0C94942BF2
:100290000C94942B0C947E4A0C94942B0C94942BD9
:1002A0000C94942B0C94942B4E414E494E49545926
:1002B000494E46CDCCCC3D0AD7233C17B7D1387731
:1002C000CC2B329595E6241FB14F0A000020410047
:1002D00000C84200401C4620BCBE4CCA1B0E5AAE91
:1002E000C59D7400407A10F35A00A0724E180900A0
:1002F00010A5D4E80000E87648170000E40B54028B
:100300000000CA9A3B000000E1F5050000809698C5
:1003100000000040420F000000A086010000001015
:100320002700000000E80300000000640000000057
:10033000000A00000000000100000000002C76D838
:1003400088DC674F0823DFC1DFAE59E1B1B796E51E
:10035000E3E453C63AE651997696E8E6C28426EB82
:10036000898C9B62ED407C6FFCEFBC9C9F40F2BA95
:10037000A56FA5F490055A2AF75C936B6CF9676D2D
:10038000C11BFCE0E40D47FEF520E6B500D0ED9082
:100390002E0300943577050080841E080000204E4F
:1003A0000A000000C80C333333330F986E128311E8
:1003B00041EF8D2114893BE65516CFFEE6DB18D1BF
:1003C000844B381BF77C1D901DA4BBE42420328491
:1003D000725E228100C9F124ECA1E53D2745464724
:1003E00065666700202B2D2E303132333435363799
:1003F000383968003E2000204D6178206C6F6F70A6
:100400002074696D6520287573293A200020636F78
:100410006E7472617374206E203D3D3E207365746E
:1004200020646973706C617920636F6E747261739C
:1004300074205B302D3235355D00206C6F67203DB8
:100440003D3E20746F67676C652064617461206C49
:100450006F6767696E6700206D7367203D3D3E20C2
:10046000746F67676C65207072696E746F75742045
:100470006F66206461746120746F2F66726F6D20E7
:100480006D61696E20626F6172640020766F6C74BA
:10049000203D3D3E20636865636B20766F6C746120
:1004A00067657320262074656D706572617475725E
:1004B0006500206A6D7030203D3D3E206A756D708C
:1004C00020746F20302028646972747920726573FB
:1004D000657429002073777220203D3D3E207472A0
:1004E0006967657220736F667477617265207265E3
:1004F000736574002077647420203D3D3E20747243
:100500006967676572207761746368646F672072DA
:100510006573657400203F202D207072696E742011
:10052000746869732068656C702074657874004D18
:100530006178206C6F6F7020287573293A20002035
:100540003B005350492070696E206D617070696E78
:1005500067206661696C65642100506F7765722061
:100560006F6E2072657365740042726F776E6F757F
:100570007420526573657400485720526573657422
:100580000053572072657365740057445420726598
:100590007365740055504449207265736574202852
:1005A00075706C6F616429004D56494F206E6F74F1
:1005B000206F6B21004D56494F206F6B0042542035
:1005C0006973206F6666004254206973206F6E0065
:1005D0002C20004B313937446973706C6179004BC2
:1005E000313937446973706C61792072756E6E6948
:1005F0006E67206F6E206478436F726500496E7677
:10060000616C696420636F6D6D616E643A200043B4
:100610006F6E74726173743A203C6E6F2063686110
:100620006E67653E00436F6E74726173743D0020A7
:1006300000636F6E7472617374006C6F67006D732A
:1006400067002C2000766F6C740054657374696EBB
:1006500067206469727479207265736574006A6DCD
:1006600070300054657374696E672053572072654B
:10067000736574007377720054657374696E6720D4
:100680007761746368646F6720726573657400775F
:100690006474003F002043414C20666F756E6421F6
:1006A000002043414C00304C00202769495E2A2A33
:1006B000542D2A72662A2A2A465F2A654C2A2A2A3B
:1006C000433D2A6374582A674527222A2A3F2A2A4B
:1006D0002A2A2A2F2A2A2A2A502A2A2A2A2A4D2A2C
:1006E0002A2A592A402A513252692A2A2A2A2A2A8F
:1006F0002A2A5C6E682A2A2A4B6A2A752A202A57D7
:1007000047612A6F622A352A36312A2A2A37373733
:100710004E2A342A482A392A414A564A55442A2A16
:10072000302A796426333961385761726E696E6791
:100730002C204B313937206475706C2E20445000CA
:100740005761726E696E672C204B313937206E3DD0
:1007500000307800202B204F762E52616E676500A6
:10076000203078002C20280020202020202020204D
:1007700020200020202000524D5400202020004343
:10078000616C00202020200052434C2000202020BB
:10079000200053544F2000484F4C44002020006458
:1007A00042002020200052454C00202020004241E1
:1007B000540020202020004155544F0020200041AB
:1007C00043002020202000484F4C440020202020BF
:1007D000202020202020004D696E200041766720D7
:1007E000004D617820002020200052454C00202040
:1007F0000041430020202020202000524D54202082
:100800002000202020200052434C200020202020C7
:100810000053544F2000202020202020002041435E
:10082000202020002020202020200043616C202058
:100830002000202020200052454C20002020202095
:100840000042415420002020202020004155544FD8
:1008500020003B20003B20003B20003B20002041AB
:100860004300206D733B20004254207475726E6506
:1008700064206F6E004254207475726E6564206F40
:10088000666600202020003C2D3E003C3D3E0020BE
:10089000202000627420004649464F2046756C6C4B
:1008A00000636C656172656400444554454354457A
:1008B0004400436F6C6C6973696F6E2000726177DE
:1008C0003A20003A2000535049207061636B6574F0
:1008D000202D204E3D002020006442002041006D6C
:1008E0004100C2B5410020E284A6006BE284A6006C
:1008F0004DE284A6002056006D5600C2B04300565B
:1009000000562C2000204300543D00537461636B5B
:100910003D00111314150000020104060300034EEC
:10092000756D2E2053616D706C6573003C2053749F
:100930006174697374696373203E00496E636C75FA
:100940006465205374617469737469637300496EDC
:10095000636C7564652054616D62004C6F67207430
:10096000696D657374616D700053706C6974207586
:100970006E69740053616D706C657320746F2073C1
:100980006B697000456E61626C6564003C20425486
:1009900020446174616C6F6767696E67203E005325
:1009A000686F77206C6F670052656C6F61642073AD
:1009B000657474696E67730053617665207365743E
:1009C00074696E677300436F6E7472617374004272
:1009D0006C7565746F6F74680044617461206C6F2E
:1009E0006767696E67203E3E3E00526561737369BA
:1009F000676E2053544F2F52434C004578747261F8
:100A0000204D6F646573003C204F7074696F6E7386
:100A1000203E0045786974003C204261636B005FB2
:100A20000205030506010406192800F81EF81FF840
:100A300005C10CBC12CA200B190DF9C7FFFFFF1F1F
:100A4000022118190DF90732B568AFB23A76FFEFF7
:100A50006384A84D8FD2C797012224190DF907216D
:100A600046DC947153C64D193765DC947153C64DFD
:100A7000193765DC947153E6E3FFFFCB00234D1972
:100A80000DF94775CAB829E3A68C13234FCAB829B4
:100A9000E3A64C3A70C0CA8103A6A68C9B324E8C4A
:100AA0003C29E3A68C9B326ECAB829930E1CB07207
:100AB000E0802931F2C4C893326ECAB829E3A68C0B
:100AC0009B326ECAB829F2F193002451190DF987AF
:100AD0003276558307A81D38456244A5194324D1B1
:100AE000981269C83C1AF3680C2431B0C2C40321BF
:100AF0000F883C20F280C009F666D01B426E08B910
:100B000029E386108A3284CE9019746A8C2874E0A6
:100B100080AC03F50E041DBB3E9E012551190DF955
:100B20004792D49C3B730E48993383CA9C210B0D8A
:100B30005968C88C4924688C3A2062D88D6944A6CB
:100B40008E9D3A76EAD8A943C8CD3036E3402C19B9
:100B50002428CD183268C84243D6993264CE9421F5
:100B600063E6509833C8CE28FAF82600264D190DB2
:100B7000F947D5E4818007C611A13666DA98696322
:100B8000A68D994665DC107224084E2069B2E645B0
:100B90000AF4688C894384CA3234A6D0213185D0C6
:100BA00099497628D5A15487D09D2215061D284144
:100BB000E8C0905185E2E39300270F190DF9072350
:100BC00076FF7DFCFF7F1D00282A190DF9872596E9
:100BD000A6C99A8DB23A95EA54AA63A77275ECB287
:100BE00054393B962AD9B154C9B25A956CD556E9B5
:100BF00086012924190DB98F4BB5AAD5AA64B94A23
:100C0000962AD9B154C9EE5F65752AD5A944A912AF
:100C1000E566A35465022A2F190DF9C787A9323B4F
:100C2000569E18758808217342C4A103E70EC42498
:100C30006A72C4C41103878C1B338C0C2942C322F3
:100C4000C9C77F16002B1A190DF9C7F363F773078D
:100C50000E943970A0CC8103E5C6EEEFE3BF0D2CF6
:100C600017190DF9C7FFFF37A6D634DAECB262A721
:100C70008E9D3A371E002D16190DF9C7FF0B070E72
:100C80000C3A7060D08103F3F1FF4F002E10190D64
:100C9000F9C7FFFF3788DA74943EBE0C2F2E190D6A
:100CA000F9071677EC54AA53A94EA53A95EAD8A9A4
:100CB00063A7529D4A752AD5A954C74E1D3B95EA94
:100CC00054AA53A94EA51B1FCF01304E190DF94749
:100CD000B7E4017907A81521366716A149942611B2
:100CE0002A34A9D0203B742690213382CC1C19646D
:100CF00016193365992163C690983386C41816E691
:100D0000D03144A7D2A04A832831348B0CAD22D4F1
:100D10000ED03B20B23E3E0C3117190DF9477868D2
:100D2000C983070492181865ECFEFF7F1F5F063227
:100D30002F190DF947D6E28171076C91A944889467
:100D400028AACC4E65752A51466B12E5AB538952E1
:100D50009D7AE0C0A00307061D38301F9F04333280
:100D6000190DF947D5E28171078C8DA11688ECAE7B
:100D700012A559F040C403110F482D4B762C55B2E3
:100D800053990AB510292AB50E5C3B30D13EBE0CF2
:100D90003438190DF9477C2AA3356D4A183961E2B8
:100DA00088893206CE9837649E947153A68D992611
:100DB00067D89C5983660D1A75E040990307CA1CD1
:100DC000385072EC7E1F5F053533190DF947F2C0BC
:100DD0008150070E843A7020D4D87DA2DE016307CB
:100DE0006E153135885628AA64F7A95094441162CB
:100DF000A94CA903D70E4CB48F0F033643190DF934
:100E000047D8E28171076C55994528D854AA63A741
:100E1000B2516DC40159130E903A52A90E2586485D
:100E20000D9A3568D6205283484D1A3569D424422C
:100E3000A4C8D02A52EC40B90313EDE3BB00372D10
:100E4000190DF947F1C00149070E483A7040EA54BC
:100E5000AA63A7529D4A75EC54AA63A7529DCAEA99
:100E60005456A7B23A95D5F9F83A003846190DF913
:100E700047D6E28171078A15A9358812214A93283D
:100E80008D9A448812A1596488D5207760E0450A7C
:100E9000E5A6109B436A12A5518348D1193667D83D
:100EA0001C5274481162A94CA903D70E4CB48F0F81
:100EB000033941190DF947D6E4017107AA11A94573
:100EC00067D6204A9426515A8AD02842A40651A2B5
:100ED00034899D52444E1DA030EB80887134A8B2F5
:100EE0003A762AD5618168512176A0DC8189F6F1B4
:100EF00065003A15190DF9C7BF4FD4A6A3F4F177D1
:100F000089DA74943EBE0C3B1C190DF9C7BF4FD44F
:100F1000A6A3F4F17789DA7495D5B153C78A1D2B4E
:100F20001F10003C1E190DF9C7D9B0436B5AF427A6
:100F30006B52255BD5D5AAAE567595ECE0F8F82B2B
:100F4000003D21190DF9C75F3F70A0CC8103650EEC
:100F50001CA88FA70F1C2873E040990307EAE3FF42
:100F600005003E1D190DF9C771B954FDD1A3568B6B
:100F7000D62C69D1C992169DB449553EFE45003F15
:100F800027190DF98761F1C0B803C58A9422446915
:100F900012A95863B7CA28AF4E6575ECFA589F5A24
:100FA000B4D5F9F832004051190DF947D7E28171F3
:100FB000076C91A9446910AD39C3C60C3A1066CCD0
:100FC0008131620E50995264CA10325386CC9932E4
:100FD00064CE942173A60C99336508152A436A548C
:100FE0009972A0CC940B63E60C233B96D93AC20EBF
:100FF000583B50D03E3E0B4144190DF9071F38DDD8
:10100000B16389B63961E484911326CE183863E060
:101010000C7253C64D193766D89C6173681D3875BC
:10102000E040A80307244D22446AD02C3AC3C64CA2
:10103000A3328DCAB821F3E8E383004251190DF9B8
:1010400047F080B10307421D38206952A1518466E0
:10105000D1994567D89C597466D119456812A50382
:1010600007421DB875E080A4498566D11936671816
:10107000996164A68D1946661899616466D11955FF
:10108000E7C08141070E843A601FDF05432E190D2A
:10109000F947D7E28169074E59A944882932C4E447
:1010A000509DCAAB6397A5CAD9B154C9D292C49016
:1010B000955207AE1D98681FDF05444D190DF9477D
:1010C000F000B903B70E1C0835A8D2244AA308CDF6
:1010D000A2338BCEB039C3E60C23338CCC3032D361
:1010E000C64C1B336DCC3032C3C80C23336CCEB02E
:1010F00039B3E8CC1A348AD0244A732C1D3810EA4C
:1011000080B103F4F16500452E190DF947F0C001D7
:101110003A070ED0397080CED8FDD90307421D386A
:1011200010EAC0815063F79F3D7080CE8103740E3A
:101130001CA08F4F024621190DF947F1C0814107CC
:101140000E0C3A7060D0D8FDD903B70EDC3A706B44
:10115000ECFEDFC72F004742190DF947F7E00162A7
:10116000074E95A9C40EA939C402511D3B95D5B1AE
:101170000B1D9032E880143A07A4509B426D0AB5CB
:1011800031D3C6101B436C0EAD41940859B174E0C5
:1011900040B00304EFE3B300484E190DF94790D671
:1011A0009C617386CD193667D89C617386CD1936DC
:1011B00067D89C617386CD1936E7C0013A070ED017
:1011C000397080CEB039C3E60C9B336CCEB039C3D6
:1011D000E60C9B336CCEB039C3E60C9B336CCEB0BF
:1011E00039C3E6E39300491F190DF947F2C0AD0377
:1011F000B70E1C1CBBFFFF0F1E3810EAC081500742
:101200000EC4C747014A22190DF947F580B103C63C
:101210000E981CBBFF7F95B140B4E4102352EC4004
:10122000B90313EDE3DB004B4B190DF9478F16990A
:10123000597446119A446910A939B4E60C1B436CE1
:101240000AB521E466D01B417002C503020FCCAB86
:10125000408F06B929D4A6501B436C0EAD41A4069D
:10126000919A446914A1518466D1194666587D7CCF
:1012700011004C1A190DF94790EAD8FDFFFFD90368
:1012800007E81C3840E7C001FAF824004D5C190D4E
:10129000F9476FDA18626368912945A61419436506
:1012A0000C959930C6CC843112C64C983261CC88EA
:1012B0002122C68C983162CC8C1132C6CC98306316
:1012C000CC90226386141933659929CB8C09B3DA43
:1012D000986963A68D993666DA986963A68D993602
:1012E00066DA9869F3F149004E59190DF9479016DD
:1012F000195A734ACD2935C7D21C4B73260C9A3321
:1013000061D09C117396203367C6983933A8CC19E5
:101310003265CE102273A60C993385C69C3133E614
:101320008C21316789398326CC193461CE243B93D3
:10133000EC8CAA33AACE2C3AB3E80C9B336C3E3E1D
:10134000094F46190DF947D6E28171076C55A9443A
:1013500088123BB4E60C23338C0AB529D4A6509BE3
:10136000326ECAB829E3A68C9B426D0AB529D4A671
:10137000501B338C0C2D32B40651628754955A079A
:10138000CC1D10591F1F065036190DF947F080B1BA
:101390000307421D38206952A1597466D119366776
:1013A000D89C617386CD994567169D49850E1C9022
:1013B00074E040A803C6C6EEFF3E7E0200515019FD
:1013C0000DF947B7E28171076C55A95487123BB4F8
:1013D000E6D022338CCCB429D4A6509B326ECAB846
:1013E00029E3A68C9B426D0AB529D4A6501B338CE9
:1013F000CC3032B4E88C2244891D52366C1D3077D3
:101400004064D5B163C91E907820E47500524F192D
:101410000DF947F080B10307421D38206952A151F0
:101420008466D1994567D89C617366D199456714E4
:10143000A149850E1C9074E040A803C6C64C9B339E
:101440006CCEB039B406CD1A446AD2A8499446117C
:101450001A4568169D597486D1C717015338190D5E
:10146000F947D7E0016A074E95A9B412294963C725
:1014700052254BB6AAD103310F04B55A9655B2EB9B
:1014800044A3238CCE283A662A1D3820EB40BD03A6
:10149000F1F15D005419190DF947EFC0012B070E4A
:1014A000583970C0DAD8FDFFFFFBF83400554919F0
:1014B0000DF94790D8986963A68D993666DA9869D0
:1014C00063A68D993666DA986963A68D993666DAD1
:1014D000986963A68D993666DA986963A68D993600
:1014E0006618195A6468D1A1448812A52AB50E5805
:1014F0003B40F03EBE0B5643190DF9476FDC94712B
:1015000053A88D193667D81C5A83464D1A3589D28F
:10151000A841B306CDA2336CCCB431D3A88C1B3216
:101520006FC83C1A03474C1C3172C2C809328D1671
:10153000A54A76AC5CF9F834005764190DF9476E8A
:10154000E08C8143E6C41932278E943163A48C1950
:101550002365CC9465A68C195264CC9022638614C2
:10156000913363C20C393326CC903343C4422344B5
:101570002C3461C6844113844C903441C80449130F
:10158000844C9064A5529952644A91A14567D6A0B3
:101590005983660D1A26495828F9F8280058441925
:1015A0000DF94770D81C5293464D22346BD02C3223
:1015B000D388901B328F04C111130F84B469942A0D
:1015C000D59A260F441C319004BD21E388501B435B
:1015D0008B0CAD419408511A4587D69C61F4F145B6
:1015E00000592E190DF9478FDA186263680D2235FC
:1015F000881243A3E8D022338C0A3522E368D02333
:101600003190C4C493378B561DBBFF7D7C19005AA3
:1016100032190DF947F0C0013A070ED0397080EA4F
:1016200054AAAB529D4A7555AA53A9AE4A752AD5FC
:1016300055A92E3BF5C08132070E943970A03EBEED
:10164000085B1B190DF93F70EBC0AD03B7C6EEFF89
:10165000FFFFD903B70EDC3A701F49005C2B190D50
:10166000B98F3B762CD9B164C7921D4B76DDB1633F
:10167000C98E253B96EC58B2EB8E1D4B762CD9B11A
:1016800064C7928D8F17005D1A190D793F70EBC0FA
:10169000AD0367F7FFFFFFAD03B70EDC3A701F51D4
:1016A000005E21190DF94758EE54AA356D5E1C31C4
:1016B0009004BD21E3C64C1B336CD0B048F2F1FF5F
:1016C0003F095F16190DF9C7FFFF7FF5C0012B0712
:1016D0000E583970C03EA600601A190DF9C75C603B
:1016E000B972C78EA55A956A55B2EB2A1C1FFFFF27
:1016F00014006138190DF9C7DF3A7880D8815B642E
:101700006A851A4B95EC6A076A1DB874E080A04A96
:101710008366CD214567161D4A7508192273E88036
:1017200085490766CCB2321F9F046241190D39A763
:101730003A767FC4D88803B2261CA834414AA54211
:101740004CD1214587149D617386CD193667D89C8D
:10175000617386CDA13587141D52830A11B2526977
:10176000C20152230EC892521F1F06632A190DF997
:10177000C71F3B7880DA015B552A511A442BD2549B
:1017800056C72E4B9559AA6429C9AA52EB80B503B6
:1017900004EFE3B3006443190DF9874575EC7EADA2
:1017A000C8AC0322461DA030A98A21428528119A7F
:1017B0003587D61C5A7386CD193667D81C5A73687C
:1017C000CDA1356814214A84EA54AA62EA008559F9
:1017D00007444C2B421F9F046533190DF9C71F3373
:1017E0007880DA015B554A4D5A8AD0AC39B4E61C90
:1017F0003840E7C08132070ED0194B95D9B12C89FA
:101800002A53EAC0B50304EFE3B3006626190DF9C5
:101810008763F1C0B803C5AA9022248B52ACB1BB38
:1018200078E040A80307421D38106FECFEFF3E3EF3
:101830000E674C190DF9C79F2A33E9808842070EBD
:10184000CC29526BCE2C42A3088D9A348AD02842E0
:10185000B3C8D02A42ED00BD03F2265014BBEC0100
:101860006B076E1D381069149D6163A68D993686CD
:1018700016994A840E1C9874E0DC014900683F19EF
:101880000D79A73A767FA5D88C03A2461C1835613E
:101890000A253B840AB1448812A15983660D9A3502
:1018A00068D6A05983660D9A3568D6A05983660D0F
:1018B0009A3568D6A0598366CDC727016920190DCE
:1018C000F98732B568ABF3B17B40E0018107C4EE24
:1018D000FF0F1EB875E0D681FBF828006A25190DA8
:1018E000F90734B568ABF3B17A80DC017207C8EE52
:1018F000FFFF2AB140C4E2102352EC40B90313ADFC
:10190000016B3D190DF9A03A76FF14A14994069197
:101910009A436B0CB129D486909B416F04C1090591
:101920000FCCB340AE443522C5C6109B436B10A903
:10193000419526511A4568169D59F5F145006C1DD3
:10194000190D793F20F080C00362F7FFFF0F1E38AA
:1019500020E9C00149070EC8C737016D52190DF9BA
:10196000C71F994184CE841357263C10A586092AA7
:10197000448AB04284952944C64C2132660A91318A
:1019800053888C994264CC142263A610193385C8FD
:10199000982944C64C2132660A913153888C994269
:1019A00064CC142263A6101933853E3E086E3E199E
:1019B0000DF9C79F99526CC60151230E8C9A308540
:1019C000921D428558224489D0AC41B306CD1A34C9
:1019D0006BD0AC41B306CD1A346BD0AC41B306CD5D
:1019E0001A346BD0AC41B3E6E393006F38190DF9AC
:1019F000C7DFB27860DC8162544A116289D02C3230
:101A0000B4C8101B336DCCB431D3C6101B436C0C5F
:101A10002D3AB3E8909A448814956207CA1D9868D5
:101A20001F1F067041190DF9C75F19626CC48151FF
:101A3000130E549A20A55221A6E890A2438ACEB054
:101A400039C3E60C9B336CCEB039C3E6D09A438AD7
:101A50000EA941850859A934E100A91107640DA90F
:101A60003676BF09713F190DF9C79FB231EB8088F7
:101A70005107284CAA62A84E214A8466CDA1358719
:101A8000D69C617386CD193687D61C5A73680D9A19
:101A90003588123B95AA983A4061D60111D38A8CB9
:101AA000DD5F017220190DF9C7DF99626BC68149AC
:101AB000230E149A4065D21D49368B526575ECFE93
:101AC000F7F1037334190DF9C7DFB27880D8815B61
:101AD000642A11A2344A1455B2550F843C30F240A6
:101AE00050B36427059B146CD02842752A1D38100A
:101AF000EB40C1FBF830007425190DF9C72055AE35
:101B00008E9D78E040A80307421D38106FECFE9FC1
:101B1000A55A64DC01720726DAC75701753D190D15
:101B2000F9C75F993568D6A05983660D9A3568D68E
:101B3000A05983660D9A3568D6A05983660D9A35EB
:101B400068D62052832811A2C44EA52AA60E50980A
:101B50007540C4B422F4F149007636190DF9C71F57
:101B6000213667D81C5A83660D1A3589D2A849A335
:101B7000E8CCA2336CCC342AE3A68CA3318FC6C048
:101B80001113298C9C30D2A651AA54E7E3D30077D5
:101B900052190DF9C71F993764DE90318B8C596447
:101BA000CC183153A888195245CC9022638648102E
:101BB0003266888419738448983167C4081982464C
:101BC000C8182168848C118246C89830498214094B
:101BD00093AA58AA52AA4A293AA4E8D09A431FDFE6
:101BE000047835190DF9C75F2135691243B3C84C24
:101BF0009B428DC83C12132750BC69942A5193070D
:101C0000228E1848821C116A638691214588D22849
:101C10003AA4E8E393007941190DF9C75FA145861D
:101C2000D6A05983660DA2346AD22842B3E60C9B33
:101C3000338CCCB429E3A68CA33170C64012132791
:101C40008C9C30F266D1AA54C74E1D3B959C107AED
:101C500007041E086910007A2B190DF9C79F397007
:101C600040D28103920E1C104A752A5156A712E5E4
:101C70002A51AE12257AE040990307CA1C38501F3A
:101C80005F047B28190DF947F940C003F20E8C233D
:101C90004A95EAD8FD2A519236A99A6576FF2C55C5
:101CA00066A91EA07760E28128007C0F190DF90754
:101CB0003276FFFFFFFFEF83017D27190DF947F211
:101CC000018107A69225BB3F4B762CD9A3252F5225
:101CD0009DCAEAD8FD55A2E50ECC3B20F04030006D
:101CE0007E1E190DF9C75FA27928D001316368D42F
:101CF000A042E5C01C390762D2C7FF7F1800000070
:101D00000004FFFF00005F02040304050103050E49
:101D10001500FC10FC11FC03050693097420095EF4
:101D2000C33FFEFF9700210E5EC39BEC62FD7B94D8
:101D3000B3EB710222145EC39388A088A088A088A8
:101D4000A088A0883CFE3F0223285EC33F8C4CA0A5
:101D50004CA088608CD401CD01598C604CA04CA063
:101D60004CD801CD01558C608C608C604C3C4E0091
:101D700024265EC39BB0A89D842A1191281141118D
:101D8000C952625209491141114111211109A90396
:101D9000B95A6179440025275EC33F04914C5190A4
:101DA00088221109290B310A6159E16089C1883201
:101DB0000911211145226A848884E6310726225EB2
:101DC000C33FCC68A18C9C8C9C8CA08464A968A522
:101DD000881A25324244528AA82CA668E231072785
:101DE0000B5EC39BB0DEE3FF330028165EC3A7EC97
:101DF000A8ACECACB0ACB0BE16961696961E96018A
:101E000029155EC34FF0F4B0B462D5C27A2B2C2BE7
:101E10003BBA5612002A1A5EC33F5E0847478A84BF
:101E20000C1D08CE46844A08CA8849C9E331002BF4
:101E3000105EC33F26C21A1E0C1D0C0AEB1E3F2C5F
:101E40000E5EC33FFE9FC9D20E0BA70E042D0E5E81
:101E5000C33F7E792075208FFF0E002E0C5EC33F9E
:101E6000FE9FCDAEC709002F175EC36BB05A6159F4
:101E70006159615961E160E160B5C2F2D801302772
:101E80005EC33F0CA5DD8C985494D490109150847F
:101E9000904C8890488C90848C1091D09422312161
:101EA000394B7A9C00310F5EC33F9428A584B0FE65
:101EB000DFE3040032145EC33F0CE599D0B06EF549
:101EC000B1EC81D4813CE60033175EC33F4CE1F1B5
:101ED000B05A49526AC59A05891D04D2E3040034F8
:101EE0001E5EC33F98B0EC2869846488A088608C2B
:101EF0009C8C9890D8C1D0C1A8B0F6B800351A5EB5
:101F0000C33FC841D84198B026917742D2C23A9295
:101F1000123B08A4C7050036215EC33F14E199B007
:101F2000ACB04CA044198D94D4909890989098900F
:101F3000989490DC213D2E0037175EC33FC481D4B6
:101F400081ACB070B05A61B5C26A85D5E30800387B
:101F5000245EC33F10A59D9098909890D88CDC8407
:101F6000E4A8889C90949890989098D090D841201C
:101F70003D2E0039205EC33F10E19D909466426281
:101F80004262524253077214C2C2C1624153078176
:101F9000F438013A0E5EC33F9ECFAEC7B3D9F538D1
:101FA000013B0F5EC33F9ECFAEC757B3C38A130238
:101FB0003C135EC33F4251422E67A717134F4BC7D6
:101FC000E32D003D125EC33F6E0F860EE6B138185A
:101FD0003A98C75F023E115EC33F6A611ECF4EAEA4
:101FE000A41C95C757003F155EC353DD4198905818
:101FF00098B05A1DAB473ABB1E270040275EC33F2F
:1020000010E141D49094988C8C8DC88DC48C0A2199
:1020100019092119899119912399102169E183C026
:102020007A1C41225EC33F5474B0F06C44A88464AF
:1020300088644CA08C5C90DCD981942239193919C0
:102040003979AC0142255EC3FF41D88194D4909880
:1020500090989094D481D4419894322131213121A7
:102060003121A9A103A97B9C0043195EC33F10E164
:1020700041D4D090988CB03E1E169E923A08A4C7C8
:10208000050044235EC33F84E14198D094664262D8
:1020900042624262426242624262426242528AA6A4
:1020A0000EC2EC710245195EC33FC4C1D0C190B0ED
:1020B0008E0FA40EA484757C3074308F35004615C5
:1020C0005EC33FC481D48194B0C607610761C2FA80
:1020D0003DCE00471E5EC33F10E141D4D0905890E2
:1020E000B08E6A846AE464E484C484A6A40EE4EA3C
:1020F0007148285EC33F84989098909890989098E3
:1021000090989098D0C1D0C19098909890989098BD
:102110009098909890983CD60049125EC33FC44175
:10212000D841A4B0FE97076107F1384A115EC33F5A
:10213000D0DDA9B0FEB320B9C37A9C004B235EC3A7
:10214000BF989094223119399139114109C94A43F4
:10215000114119392131213129654262F358034C6B
:102160000F5EC33F84B0FE1F1F0C1DCC630D4D2BB3
:102170005EC3BF9C8C9CCCD4CCD40C1B8998081912
:10218000096D442242644446646462D4C9C8C9C823
:10219000C9C8C9C8C9C8C9630D4E2B5EC3BF98D092
:1021A00094D094109110910A1921091921114532E6
:1021B000214232124242114242445243524362424D
:1021C00062F298034F225EC33F4CE199944672320B
:1021D00072327232723272327232723272425252CF
:1021E000436297F4B800501D5EC33FC441D8819448
:1021F000D490989098909890D4D081D44198B0BEC3
:10220000C7190051265EC33F4CE199944672327261
:1022100032723272327232723272327242524352BD
:10222000621383B5C2D2C4320052255EC33FC4419B
:10223000D88194D490989098909890D4D081D4419B
:10224000988C9C9098909894CE84C4E4B106531ACC
:102250005EC33F4CE14194C6C28B8BA7150BC509E9
:1022600049491DC8D5E30200540F5EC3FF01CD01EB
:102270009DB0FEDFE3060055265EC3BF98909890A0
:10228000989098909890989098909890989098900E
:1022900098909890989490D841203D4E0056215E99
:1022A000C3BF9C8C9C9098905894322131A13819CE
:1022B00041114191480951D2D961E178DC00572F91
:1022C0005EC37FA4884C508C9A1835316A8242468E
:1022D000844222144944484449444844914444CDEA
:1022E0004CCD8C0989098945C545C5E30058215E57
:1022F000C33F84589432A1381941094909D1D9B54D
:10230000941292227232724252AAE2E4B106591930
:102310005EC3BF9C909890949890988CA088A04899
:1023200028E9B07E8F13005A1B5EC3FFC1D0C1AC39
:10233000B0AC70B0ACB0AC70B0ACB0EC01CD013DA5
:10234000D6005B125EC3D341D84198B0FE7F7C10AB
:1023500076100F015C185EC38BB0B4B074B4B0B427
:10236000B0B4B0B4B0B4B0B4B0743C065D125EC3E7
:10237000CB41D841B0FEFFEC20EC201E06005E14DD
:102380005EC33F54B4ECA884A448A08C5C543CFECB
:10239000CF005F0D5EC33FFE7F7E4073408F0060C5
:1023A000115EC33F92E868616961E96879FCA70042
:1023B000611A5EC33FCEEB0E8287D55D1D08890989
:1023C0008909494D1D8891C8630E62215EC38BB097
:1023D0005ED01D480D49890989098909890989093A
:1023E00089090D491D8485D0E3020063145EC33F53
:1023F000EE0B0FA21409EB78582AEE20AE1E0764EC
:10240000215EC3A7B0EE28A40EA48486C484C4842D
:10241000C484C484C484C4A484A60EE446E43107FE
:10242000651A5EC33FCE0BCFA484C4840E860E868D
:1024300084554BC51DC4D5E3020066145EC31FE17D
:10244000D95098B0D283B0834061FD3D8E00671FA4
:102450005EC33FAE4B840E66A4F44C66CE4E58D895
:10246000F2202A4E464E464EE660CC0A0068125EC6
:10247000C38BB09ECC49940D49E9FFBFC71C0069CE
:10248000105EC39BEC703CC2CA62FDE5DD3D0E6A86
:10249000125EC39FF0703C324363FDEF82C40EEBCB
:1024A000006B1D5EC38BB05E291293911311949043
:1024B000AC9C1094919319139AD24C1E6B006C0F24
:1024C0005EC34B65B1FE5F1E481DC8630E6D235E83
:1024D000C33F6E2546660E4A6494C828915122A3D4
:1024E0004446898C121925324A6494C8A8C718003A
:1024F0006E115EC33F8E45E624CA86A4F4FFDF63F7
:102500000E6F1C5EC33FCE0BCFA484C484E464E48E
:1025100064E464E464C4A4941DD6E3020070215E04
:10252000C33F8E45E60EA486A4C484C484C484C478
:1025300084C484C48486A40EA424E8843505712050
:102540005EC33FCE29A40EA48486C484C484C484FC
:10255000C484C484C4A484C60EE246847503721283
:102560005EC33FAE45C824AC88A26685F57B5C019E
:1025700073175EC33FCE0BCFA4144F13130F4B85BD
:10258000491DC4D9E3020074135EC33F1261A5075D
:10259000610781C2FA51A0253D0E751F5EC33F8EB3
:1025A000C584C484C484C484C484C484C484C484EA
:1025B000C484561D8891C8630D761D5EC33F6EE5C9
:1025C00084C4A2C4528909C5C9088A088A444A88B1
:1025D000CE0EC7E3060077295EC33F6E05456464EF
:1025E00062D404C5C804C5C804499004494428926B
:1025F000088910920819931913121392C71C0078B6
:102600001C5EC33F8EA5C464E46404254467974AF6
:10261000484A08CA8849A99AC71A00791E5EC33F6A
:102620008EC584C484A4C484C4840245044504457E
:1026300042D90A0B070B5652027A155EC33F8E0F22
:10264000A40E64B59DD576F460E8601E73007B131C
:102650005EC33F1865A1B08E4349A715EBEB521A34
:10266000007C0A5EC39BB0FEFFCF007D145EC33FBB
:1026700044A5B5B05ED38ECA0AEBED9C611D007E09
:10268000105EC33FCE638B62648C82E8F13F03002F
:10269000000004FFFF00005F0203020304010204C4
:1026A000060C00FE07FE08FF017B0316048B2007C3
:1026B000E6F8F94F00210AE6F8C9697730A7002249
:1026C0000CE6F8E1244BB224E71300230FE6F819D7
:1026D000936890922C890629C909240EE6F8F170B6
:1026E0004A3A8E49A7318700250DE6F8895222859E
:1026F0009D94488701260EE6F8A961922561A529D7
:102700005372182709E6F8F1B4CE3700280DE6F821
:1027100029611AA6E534CE1100290CE6F8E16A9C7D
:1027200016D330C7002A0EE6F8C959521AC329A990
:10273000E514002B0AE6F8596B8396E60C2C09E6A3
:10274000F8F92E6A3A062D09E6F87919746E002E0A
:1027500009E6F8F92EEA14002F0BE6F859C234AC5A
:1027600086390D300AE6F8C95AD4BFE9043109E6C2
:10277000F8C9A1DA7127320CE6F8A95396868D8341
:102780000E03330DE6F889831A867292453B0134B5
:102790000DE6F8E9A19644A5414C7302350DE6F823
:1027A0008983920E719A64D14E360DE6F8C95A9813
:1027B0000E519664D14E370CE6F889831AA6615AF9
:1027C000A700380EE6F8A9539664D1942559B4139E
:1027D000390EE6F8A9539664D19086994E013A0BCA
:1027E000E6F8B9893A26EA14003B0BE6F8B9893ACB
:1027F000266A3A063C09E6F899C3729D0C3D0AE642
:10280000F8390DFAA033023E09E6F819E3629D0596
:102810003F0CE6F8A95316567330A700400DE6F8B2
:10282000A95396244B9725DE094110E6F8A9539643
:1028300064C9A064499664390C420DE6F8894316D0
:10284000356D51CB9013430BE6F8A95396A46DD187
:102850004E440BE6F8894316F52F434E450EE6F835
:10286000898392A64394A6830E03460DE6F88983D6
:1028700092A64394D66900470DE6F8A95396A4257D
:10288000258B76024811E6F8895992255932285944
:102890009225590E034909E6F8A963DA71274A0B14
:1028A000E6F8C963DA54D329004B0FE6F8895912C8
:1028B000553231C9A25A0E034C0AE6F88969AF8332
:1028C0000E034D0FE6F8895962E99664499664391A
:1028D0000C4E10E6F88959922552D249C9922C879C
:1028E000014F0FE6F8A95396644996644916ED0422
:1028F000500EE6F889439425593244699D06510FDC
:10290000E6F8A9539664499674CA941C065210E6D8
:10291000F8894394255932444916D57218530DE667
:10292000F8A95396C47392453B01540AE6F889838B
:1029300096F64E015510E6F8895992255992255977
:1029400092453B015610E6F889599225599245491E
:1029500096843905570FE6F8895992255992257DB5
:102960004A72025810E6F889599245495889B224AA
:10297000CB6100590DE6F8895992454998B6530044
:102980005A0BE6F889831A761D74185B0AE6F8E19B
:102990002DEDEB8E005C0BE6F889711A57E31C06EF
:1029A0005D09E6F8E1B5DF76045E0BE6F8F1308903
:1029B000B29C2F005F08E6F8F9B741016008E6F81D
:1029C000E1763E01610DE6F8B9CDD19064D190C3B6
:1029D00000620FE6F889693A445992255932E404B5
:1029E000630BE6F8B94D599266D14E6410E6F8597A
:1029F000D26848B2244BB268C86100650BE6F8B9EA
:102A00004D593244F14E660BE6F8C95A541CD33A7C
:102A100009670EE6F8B94D5992255934A4D10468D6
:102A200010E6F889693A445992255992E5300069CF
:102A30000AE6F8C939A636EE046A0BE6F859724C74
:102A4000ED5493006B0EE6F889692D89A22DAAE555
:102A500030006C09E6F8A96A8F3B016D0BE6F83986
:102A60002951D2FF0E036E0EE6F83925929464497F
:102A70009664390C6F0CE6F8B94D59922559B41388
:102A8000700FE6F8390D51966449960C519A02710F
:102A90000EE6F8B90D49966449160D6905720CE603
:102AA000F839259294A4751A00730BE6F8B90D490C
:102AB0003C27434E740CE6F8C969366869598701AA
:102AC000750EE6F839654996644964C96100760E69
:102AD000E6F839654996645112E61400770CE6F879
:102AE00039654996F429C909780DE6F83965511216
:102AF00056A22C8701790DE6F83965499664511282
:102B0000B6027A0BE6F8390D62E3A0C3007B0CE64F
:102B1000F829615A8CD3728E007C09E6F8F1B4BFB3
:102B200043007D0BE6F8E16A394C8B39067E0AE6F4
:102B3000F8B94549A79C1500000004FFFF0000CF2D
:102B40000204030404010305090F00FD0AFD0BFF45
:102B50000221047D0E182007F9931FFF00210CF9B4
:102B6000933B30DFC306C6A300220EF9931F2C242B
:102B70002A242A241E9F002316F9931F3C242A246A
:102B8000C828242A24C828242A241E25002415F90C
:102B9000931F2EAC262467117173116121B9298B03
:102BA0008703251EF9931F2A28242224262224285D
:102BB000242E302E2428242226242224281E1C00E1
:102BC000261AF9931F4A2C242A242A244C4E262400
:102BD000454CA290882099786800270AF9931F2E07
:102BE000303D3E02280FF9933D2E302E302F032327
:102BF000E3C100290FF9933932303230EF02E3E2BA
:102C000001012A13F9931F2E2A244D44AAA98834BE
:102C100021A9E2B1062B0DF9931F6960AAABC0F49C
:102C200048012C0BF9931F1FC909A60B022D09F9A6
:102C3000931F47F738022E09F9931F1FC9C9232F85
:102C400010F9931F342E302E615CC2B878440030E6
:102C500017F9931F6C2A2655485448544854485431
:102C600048544CAA79043110F9931F2E4E2C222A75
:102C70002430AFEEA101320FF9931FAA262A242A8D
:102C80002E1FDE43033311F9931FE8302EDD6460FD
:102C900092A8987A70003414F9931F324E2C222A8D
:102CA00024282651CC5D607A70003512F9931FE814
:102CB0002430058D5060265131F5E0003616F99329
:102CC0001F8C282E30058D504854485448544C3D94
:102CD00038003712F9931FE8302E302E302E302E68
:102CE000301E09003814F9931F6C2A26554CAAA9E6
:102CF0009854215131A9E6113915F9931FAA262AB2
:102D0000242A242A24488622305D103D023A0CF9F8
:102D1000931F2339794472F2083B0EF9931F23392C
:102D200079447282E982003C0CF9931F322E87911C
:102D3000B907073D0BF9931FD37BA87B2C003E0CF2
:102D4000F9931F2A328771B947033F12F9931FAADB
:102D5000262A242A302EC37890781400401BF99339
:102D60001FAA262A242A24842422262422442444F6
:102D7000222430B21E1C004118F9931F2E45544CDA
:102D8000AA90A890A89093A890A890A878680042CC
:102D900016F9931FA8284D5448504C519AA890A852
:102DA00090A0987A04430FF9931FAA262A24305F33
:102DB000C5D483034418F9931FA8284D5448544898
:102DC0005448544854485448504C3D02450FF993D8
:102DD0001FE8243061516086F7D000460EF9931F3A
:102DE000E82430615160EE11014715F9931FAA26BE
:102DF0002A24309B91A890A890A8987A7000481B2C
:102E0000F9931F282A242A242A242AE4242A242A5B
:102E1000242A242A242A1E1A00490CF9931FAA2CBA
:102E2000303FAB07074A0DF9931FAE2C30DF040586
:102E3000D1234B19F9931F282A2428265148D45806
:102E4000445848544C509AA87868004C0BF9931F8A
:102E500028307F780F0D4D19F9931F282A242A4412
:102E600046242293884CF2AB90A890A87868004E34
:102E70001CF9931F282A242A4428242226243711A7
:102E80002141225121512151F1D0004F1AF9931FB4
:102E9000AA262A242A242A242A242A242A242A2440
:102EA0002AA61E1C005012F9931FC8262A242A2481
:102EB0002AC42630F78800511BF9931FAA262A241A
:102EC0002A242A242A242A242A242226249BBA4873
:102ED00051005219F9931FC8262A242A242AC426ED
:102EE000242A26284D5448543C34005316F9931F85
:102EF000AA262A242A24725232242A242AA61E1CF4
:102F000000540CF9931FE82A307F8F0200551BF9FB
:102F1000931F282A242A242A242A242A242A242AD9
:102F2000242A242AA61E1C00561AF9931F282A2494
:102F30002A242A26514C504C5444584458445C3C52
:102F40000A005714F9931F282A242A242A242A2401
:102F5000FF2FB2490F0E5818F9931F282A242A264A
:102F600055445C605C44544CAA90A87868005911A0
:102F7000F9931F282A242A2655445C60DEA3005AB0
:102F80000DF9931FE8302E1F06DE43035B0CF99307
:102F9000992A30FF901E0A005C10F9931F283230E6
:102FA000326164C2C87868005D0BF9939730FF15F1
:102FB0003D18005E0DF9931F2E45544CAA78BC03B2
:102FC0005F0AF9931FBF398807026009F993393204
:102FD0003D3E066112F9931F93CAC01893A8902032
:102FE000198A7868006217F9931F28300B1AA1908C
:102FF000A890A890A810A190087A7000630FF99388
:103000001F939AA890C0AC62EAC1016418F9931F9B
:1030100034300D45489048544854485448900C4525
:103020003C34006511F9931F939AA890A89093C01F
:10303000C87A70006612F9931F6E2A262826283057
:10304000AC2C307B24006717F9931F138A90A0984B
:10305000A098A020A2C89AA890A89812006817F972
:10306000931F28300B1AA190A890A890A890A89020
:10307000A8786800690DF9931F4C1E7230CFEAC121
:10308000016A12F9931F501E72306F82628262824F
:103090008268006B16F9931F2830AB9018990829A5
:1030A000B908A91899A87868006C0BF9931F6A30C1
:1030B0007F560F0E6D0FF9931F8B099990FCFF2A15
:1030C0001E1A006E16F9931F8B081AA190A890A8DB
:1030D00090A890A890A87868006F14F9931F939A0D
:1030E000A890A890A890A890A8987A70007017F956
:1030F000931F8B081AA190A890A890A810A19008DF
:103100009AC074007116F9931F138A902091A890A9
:10311000A890A89020198AC02C00720FF9931F8BD9
:10312000902199443181D9A3017311F9931F939A86
:10313000A890C8CA90A8987A7000740FF9931F3E9F
:1031400030CC2A303751F3E0007516F9931F8BA06D
:1031500098A098A098A098A098A0208A7868007657
:1031600014F9931F8BA890A89844315111611171E3
:10317000F128007710F9931F8BA890A890FC17D91D
:10318000A407077812F9931F8BA89854117129A2EC
:103190006252C543037919F9931F8BA098A098A098
:1031A00098A098A09818A189C098A0201A007A0B1E
:1031B000F9931F8BBBBCBB87067B11F9937D2A302B
:1031C00065989C645C60CA7920007C0AF9933B3066
:1031D000FF7B38007D11F9937532305DA49C5864F3
:1031E00060AA7940007E0DF9931F4A262437F2F831
:1031F0000400A007F9931FFF00A10CF9933B301EB8
:103200003630DFA300A216F9931F6D145148444CC9
:1032100048544458444810553C1A00A315F9931FCC
:103220006E2A262830AC2C304E2C2226C53C380085
:10323000A412F9931F3A2AA628262826A8262A1E71
:103240005300A514F9931F282A242A2655445459BB
:103250005859607A1400A60DF9931F2E30F720817B
:10326000B98703A718F9931F4C2C242A522C242A1F
:10327000242A244C322A244C1E0E00A80BF9933722
:103280002628261EBF02A919F9931F8A28498848B3
:103290004492888C22924424114914448F1200AA2B
:1032A00010F9931F4A2C246C2A248CBA1E6300AB9D
:1032B00018F9931F454850485048504854485848BA
:1032C000584858483C3A00AC0AF9931F53C3EC31B4
:1032D00001AD09F9931F57F5B802AE1AF9931F8A89
:1032E0002849C44844928814231199442489080920
:1032F0000AA24709AF09F9931FC81EBF02B00EF911
:10330000931F4E2C242A244C1E2F01B10EF9931F1B
:103310002E30D55560F27B7400B20FF9931F4A2C02
:1033200024304C2C901E7700B310F9931F4A2C24A4
:103330002E322A244C1E8700B409F9933D2E3D3EBF
:1033400007B519F9931F8BA890A890A890A890A8EA
:10335000101991888990C0780800B61EF9931FCA89
:1033600024262224262224262286222C222C222CA9
:10337000222C222C221E1A00B70AF9931F6B3979CE
:103380009C01B80BF9931FBF930A091302B90CF9FA
:10339000931F2A4E30BB791C02BA0FF9931F6A2A79
:1033A0002628266ABC1E6700BB18F9931F3A242CF6
:1033B000242C242C242A242824282428241E2900D0
:1033C000BC15F9931F2A4E30A39011B188A89028FC
:1033D0008938796800BD12F9931F2A4E301319926B
:1033E000C030B1407A6800BE18F9931F4A2C242ED1
:1033F000322A248D885844544894449C3C3400BF5D
:1034000012F9931F2E1E24302EC3A890A8987A700C
:1034100000C017F99325323DC4544CAA90A890934C
:10342000A890A890A8786800C117F9932D2E3DC4E4
:10343000544CAA90A89093A890A890A8786800C22D
:1034400019F993292E222A267C2A26554854C84940
:1034500054485448543C3400C318F9935726246404
:103460007C2A26554854C84954485448543C340092
:10347000C418F993372628267C2A26554854C8496B
:1034800054485448543C3400C519F993792A266AA3
:103490002C222A26554854C84954485448543C3490
:1034A00000C61AF9931F4A62245548544854489458
:1034B0004D485448544854083D3400C712F9931FEE
:1034C000AA262A24305FC5944985840901C810F9C9
:1034D000932532F94D60205560BA7B6800C910F918
:1034E000932D2EF94D60205560BA7B6800CA13F900
:1034F00093292E222A26F82630902A30DD3D3400EA
:10350000CB12F99337262826F82630902A30DD3D55
:103510003400CC0DF99325327D59609ED58303CDBF
:103520000DF9932D2E7D59609ED58303CE10F9930E
:10353000292E222A26BA2C30CFEAC101CF0FF993C7
:1035400037262826BA2C30CFEAC101D018F9931FAC
:10355000A8284D544854C4504854485448544850DE
:103560004C3D02D119F99357262464382A44282463
:10357000222624BF89080912898A8706D217F9935F
:1035800025327D4D54485448544854485448544C6E
:103590003D3800D317F9932D2E7D4D54485448548F
:1035A0004854485448544C3D3800D41AF993292EB5
:1035B000222A26BA262A242A242A242A242A242A09
:1035C000A61E1C00D519F99357262464BA262A246E
:1035D0002A242A242A242A242AA61E1C00D619F9C1
:1035E0009337262826BA262A242A242A242A242A5B
:1035F000242AA61E1C00D712F9931F5D544CAA88DA
:10360000B8145131A9E2D101D81CF9931F22A62682
:103610004824262224262224BF8809898809118A61
:10362000A9890705D918F993253279544854485483
:1036300048544854485448544C3D3800DA18F993DB
:103640002D2E7954485448544854485448544854AA
:103650004C3D3800DB1BF993292E222A26382A24D8
:103660002A242A242A242A242A242AA61E1C00DCEE
:103670001AF99337262826382A242A242A242A2489
:103680002A242A242AA61E1C00DD12F9932D2E7945
:103690005448544CAA88B8C0EC5100DE14F9931F6A
:1036A0002830D0262A242A242AC426303D2200DFAE
:1036B0001AF9931F6C2A262826282448222C242A0B
:1036C000262826282628421E01E013F9933932794C
:1036D00065608C495448900C453C3400E113F993E3
:1036E0003F2E7D65608C495448900C453C3400E287
:1036F00016F9933B2E222A26BA3230C6242A2448B1
:1037000086221E1A00E316F9931F4C242644BA326F
:1037100030C6242A244886221E1A00E416F9931F74
:103720002A262826BA3230C6242A244886221E1A7F
:1037300000E515F9935B2C244CBC3230C6242A24B6
:103740004886221E1A00E615F9931F130999905412
:103750002131352151216924E6A101E712F9931F96
:10376000939AA890C0AC62CAA442C28400E812F93D
:103770009337327D4D544854C84960643D3800E960
:1037800012F9933F2E7D4D544854C84960643D382A
:1037900000EA15F9933B2E222A26BA262A242AE487
:1037A0002430B21E1C00EB15F9931F2A262826BAD6
:1037B000262A242AE42430B21E1C00EC0CF993378C
:1037C00032FD609ED58303ED0DF9933D2E3DC4601F
:1037D0009ED58303EE0FF993392E222A267C30CF13
:1037E000EAC101EF0FF9931F2A242A247C30CFEA83
:1037F000C101F019F99337244C2C2232AA262A242D
:103800002A242A242A242AA61E1C00F11AF9931F0E
:103810004A26246438824628242A242A242A242A50
:10382000242A1E1A00F215F99337327D4D5448545C
:103830004854485448544C3D3800F315F9933F2EF2
:103840007D4D5448544854485448544C3D3800F435
:1038500018F9933B2E222A26BA262A242A242A241F
:103860002A242AA61E1C00F518F9931F4A26246450
:10387000BA262A242A242A242A242AA61E1C00F630
:1038800018F9931F2A262826BA262A242A242A240D
:103890002A242AA61E1C00F70FF9931F45DC5CF8AA
:1038A00079DC5C3C0A00F817F9931F754C4D8A903F
:1038B0009888905CC48444C4C4D4C48302F917F9C2
:1038C00093373279504C504C504C504C504C501017
:1038D000453C3400FA17F9933F2E79504C504C5028
:1038E0004C504C504C5010453C3400FB1AF9933B63
:1038F0002E222A2638282628262826282628262842
:1039000088221E1A00FC1AF9931F2A242A243A2816
:103910002628262826282628262888221E1A00FD42
:103920001AF9933D2E7D504C504C504C504C504CFD
:103930008CD044604C50100D00FE16F9931F3A30A5
:103940000B1AA190A890A810A190089AC07400FF2B
:103950001DF9931F2A242A243A28262826282628B7
:1039600026282646682230262888060000000008FF
:103970002595076BFFFF20A015F9931F682A300DCE
:10398000454C504C945960203D340020A11BF993C4
:103990003FA82645484C5048544854445844989CA5
:1039A00050884D3C280020A217F9931FAA262A24EC
:1039B000300949AA90A890A89034F5E00020A317F8
:1039C000F9931FE826301D854C84544458445844CC
:1039D000143D0A0020A416F9931F6E2A2628AC2C49
:1039E000AC2C4E2C2226C53C380020A518F9931F7C
:1039F00079C4921422211221B91009910849151194
:103A00000F0B20A61DF9931F282A242A4428E240E0
:103A10002224C58144904854485448543C340020E2
:103A2000A713F9931FC8262AE240222AC42630F79A
:103A3000880020A81CF9931F882A26E62611C58431
:103A400048504488489A889890889879680020A9B6
:103A50001AF9931F282A242A242AE2402224C58105
:103A60004448BEC8263D380020AA1FF9931F6A2A81
:103A70002622242293884C223289C8242293884CFF
:103A800022624242E6C10120AB16F9931F34C630D0
:103A900086222448242A244886BC1E1C0020AC13FD
:103AA000F9931FC5544CBAAAB8AAC898A87970004F
:103AB00020AD1AF9931F282A2428265148D04D44B6
:103AC0005848544C509AA878680020AE12F9931FB9
:103AD000E82A30504C30504C303D0A0020AF1DF9E0
:103AE000931F2C8E2822242A26282628262826467C
:103AF0002624422426441E1C0020B01EF9931F4E8B
:103B00002C242A242A242A242C22282428225184C2
:103B100044489AC0B8580020B116F9931FA828C984
:103B2000414850C84148504C51607A440021031329
:103B3000F993352E22622622262830DF44CD8303D6
:103B4000210912F993352E222ED22630B028307B4F
:103B50003400212618F9931F7E2A265548544854CC
:103B60004CAA88B088A08979680021900EF9931F2B
:103B7000695CBA9BC8F44801219111F9931F2E6E1C
:103B80002A224D48AAC0BC470121920DF9931F6912
:103B9000649ABBEC9102219311F9931F2E30AF422E
:103BA000D244A49A8B4701219411F9931F9B88A8B2
:103BB00098989B5411F1D800219517F9931F2E6EF8
:103BC0002A224D48AAC0A8903411A9E6E25100214A
:103BD0009610F9931F1D955C44584864F6E800213F
:103BE0009711F9931F299D58445448505C7AD4008A
:103BF000219810F9931F5D642661117152F4E80059
:103C0000219911F9931F755CA290A88830397AA484
:103C100000219A14F9931F655C4CA290839098A898
:103C200090B078B400219B14F9931F695848544C04
:103C3000C84148504CBA78A400219C11F9931F65E3
:103C40005CA2108A24C922E3D102219D12F9931F9C
:103C5000696450928808A290B8F44801219E16F930
:103C6000931F654850485048D04148B290B0907872
:103C70008400219F16F9931F2E6E2A224D48A2A977
:103C8000883421A902D3A30021A017F9931F5D480E
:103C900058485848C8415048504850483C52002164
:103CA000A116F9931F2E3055489A88544321692252
:103CB00052CDC5A30021A212F9931F695C4C365561
:103CC00031513151F1480121A311F9931F69544C2D
:103CD000544C544DEEE2910221A412F9931F695CF9
:103CE0004CA2909BA03451F1480121A512F9931FD9
:103CF0002E6E2A224D48AAC09CD5830321A612F914
:103D0000931F69544C509A93A09874F1480121A7CD
:103D100012F9931FAA2C305721692252CDC5A30056
:103D200021A816F9931F2E6E2A224D48AA24692233
:103D300052CD45DD430321A910F9931F655C4CAAC0
:103D4000889BC8F4680121AA0FF9931F69544CAAF3
:103D500098BBEC910221AB12F9931F655C4C1611D4
:103D600037A942C2E2D10221AC13F9931F69544C26
:103D70008A98989B442171F1480121AD11F9931F54
:103D8000939824295844C5A4C7040021AE12F9937E
:103D90001F939824290E2442D2A4C7040021AF16F1
:103DA000F9931F2E614850C490485C6054441C59DC
:103DB0003C0A0021B011F9931F2C2ECE28262A246C
:103DC00030EFC10121B111F9931F3032E6242826CA
:103DD0005160EE110121B212F9931F323057214187
:103DE00031314691F1480021B30EF9931F28306F0D
:103DF00082D2DCA54721B40EF9931F5D61CE225219
:103E0000CDC52321B511F9931F5160A298442137E4
:103E100091F1680121B613F9931FC5544CAA90285B
:103E200089341173F1980121B714F9931F7C2A2664
:103E3000554854484C44AAB9784C0021B813F9931A
:103E40001FE826704C2E22323032613C340021B9FA
:103E500019F9931F3A242A22EC24222C245944C80D
:103E6000594454483C340021BA16F9931FA1484CD8
:103E7000CC444C44845448544CAA79A40021BB152A
:103E8000F9931F6188CC4C44362151215131A9E668
:103E9000110221D011F9931F655CDC81E441486473
:103EA0003C5A0021D11AF9931F2E4594844C444664
:103EB0001161116111611161116111F10821D210BB
:103EC000F9931F6D64C841E4815C7A940021D31C8E
:103ED000F9931F2C222C222C222C222C222C22283B
:103EE000221B09A988B878140021D414F9931F65FE
:103EF00044544CCC455CC44DAA8878940021D51A12
:103F0000F9931F2E4594844C44461161114111D9F7
:103F1000484845C4C5A30021D614F9931F9D4D48B8
:103F2000544C904C8A989094F1280121D715F9931C
:103F30001FA15548504C1A919888A890A078B400B9
:103F400021D814F9931F6592341131314231512136
:103F500031F6E80021D914F9931F6D504854444CB0
:103F6000884C462151F6080121E612F9931F659C01
:103F700058C45D448489603C5A0021E719F9931FB5
:103F80002E45544CCCC4504458445844584458448A
:103F9000D83C0221E811F9931F6DA08845BA8B30F7
:103FA000B978940021E91AF9931F6C2C222C222C49
:103FB000222C222C2268622655445C3C0A00258073
:103FC0000AF993E1FF1EC70025810AF9931F3F3EBE
:103FD000382025820BF9931F5F1EFC200025830BE0
:103FE000F9931FCF0EFE410125840BF9931F37076C
:103FF000FF070225850BF9931FCB83FF0704258656
:104000000BF9931FD9C1FF1F0425870BF9931FE6F6
:10401000E0FF3F2825880AF993E1FFFF0301258986
:1040200025F993E120E220E220E220E220E220E2F2
:1040300020E220E220E220E220E220E220E220E270
:10404000200200258A0AF993E1E4FF9F00258B0AEC
:10405000F993C1C6FFDF00258C0AF993A1A8FF1FC1
:1040600001258D0AF993616CFF9F01258E0AF99352
:10407000414EFFDF01258F0AF9932130FF1F0225F2
:104080009008F9938BFF3F259119F9932122A711ED
:104090009946E43422D3889C46641A91D3882C0034
:1040A000259210F9932122FFFFFFFFFFFFFFFF037F
:1040B00025931FF993E14022170713591C4CE4E2A2
:1040C00060228B83895C1C4C647130918B030125C9
:1040D000940AF993E1013D7E0C259508F99331FF8F
:1040E0003F25960BF9931F3745FD110025970AF9D7
:1040F000931F8754FC0125980BF993A1A8DFE305D2
:104100000025990CF993A1A81F1DFC1F08259A0BE7
:10411000F993A1A85F52F107259B0BF993E1FFA04A
:10412000A83F02259C09F993E1FF8A7F259D0AF9A2
:10413000938BBFC73100259E0CF9938B5F1D08F54B
:104140004700259F0BF9938B5F1DFC1F1825A00BC3
:10415000F9931FDDC9BF470725A115F9931FDD4955
:10416000544854485448544854C83D3A0025A21570
:10417000F9931F614D5448544854485448544C3D99
:10418000420025A318F9931FDD495448C44448C48C
:104190004448C4444854C83D3A0025A413F9931F29
:1041A000DD4954C84954C84954C83D3A0025A516AC
:1041B000F9931FDD4944261199446412914944261C
:1041C000F7E80025A614F9931FDD49442627119925
:1041D0009C4464728F0E0025A714F9931FDD496E6D
:1041E0002242644422624232B9470725A814F99357
:1041F0001FDD492E6242644462224232B9470725DC
:10420000A91AF9931FDD894484484C4488448448A2
:10421000444C884484C83D3A0025AA0BF9931FE317
:10422000B1F5180325AB0DF9931FE3B188B0798C74
:104230000125AC0BF9931FFDC11FCC6325AD0DF912
:10424000931FFDC19CBA83790C25AE0BF9931FBC5B
:10425000A87F0F0E25AF19F9931FBC282628262802
:10426000262826282628262826A81E1C0025B01029
:10427000F9931F8B838883071407F1580025B11128
:10428000F9931F8B83883039B18883782C0025B24D
:1042900014F9931F2E306E6CAAA8E6E4E2E0801EAB
:1042A000180025B319F9931F2E302E222C222A260E
:1042B000282655485444DCC13C300025B410F993FD
:1042C0001F6960DCD85451CD3D3A0025B514F993EF
:1042D0001F69605C445844544C504CCC3D3A002516
:1042E000B614F9931F588ECAE620E2E060C2864AEF
:1042F0001E110025B718F9931F582E422A46264A48
:10430000224E4A224626424A1E110025B810F99331
:104310001F5DE058D149D1583C6A0025B913F99383
:104320001F5DE0588850904888D0583C6A0025BAF4
:104330000FF9931FFD98CDC141CC3C660025BB1001
:10434000F9931FFD58C84C14C9CC3C660025BC1419
:10435000F9931FE6E080E2E4A6A86A6C2E301E0501
:104360000025BD19F9931FE6602E222A242A265122
:104370004C544458445C603C0A0025BE10F9931F1D
:10438000DD4D51D5D85C603C520025BF13F9931F19
:10439000DD4DA298A888B088B8C078A40025C014C4
:1043A000F9931F91148DC5C1C1C4418C159D3C303A
:1043B0000025C118F9931F9194448C4C84945C841B
:1043C000548C4C94449C3C300025C210F9931F75CA
:1043D000D850C951D9603C3A0025C313F9931F75D1
:1043E000D8904888509048D8603C3A0025C40EF9CF
:1043F000931FB399838318B3790C25C50FF9931FC5
:10440000B39911AA9891B0790C25C613F9931F4559
:10441000DC54CDC581C44DD55C3C0A0025C717F9D5
:10442000931F455C44544CAA88B888A898541171CD
:10443000F1280025C818F9931F455C44544C921488
:1044400021231121695245C4C5A30025C913F9933D
:104450001FE5544C922C2642B249358F120025CAD2
:1044600017F9931F45605C445844544C54445844D5
:104470005C603C0A0025CB13F9931FE5544CAA90CD
:10448000A890A89854F3280125CC11F9931F6958D6
:104490004C7054704C583C520025CD16F9931FE5D2
:1044A00094844C4426119944642321358F120025AD
:1044B000CE12F9931FE5544C922C32C926D53C4AB2
:1044C0000025CF0FF9931FE554CDC99BAA7994001D
:1044D00025D015F9931FE5D4440C4908490849CC67
:1044E00044D43C4A0025D115F9931FE554C44C0827
:1044F000490849084DC4D43C4A0025D210F9931FFD
:10450000E5544CAA903755F3280125D311F9931F90
:10451000E554CDC949544CAA79940025D414F99393
:104520001FE554C44C08490849544CAA7994002505
:10453000D511F9931FE554C44C08C99BAA7994007E
:1045400025D60EF9931FA5D8146773F2480125D715
:104550000FF9931FA9DC1815AB3179940025D80FFA
:10456000F993E11FD854B1AA39F8030325D915F9F5
:1045700093E10F682A565448544854ACA839F801BE
:104580000125DA11F993E10F682A56544854C4E31F
:10459000060025DB10F9931F37111512152B6A0E33
:1045A0007E4025DC0DF9931FA5585C603C4E01252B
:1045B000DD0CF9931FA964C2781C0125DE0DF99367
:1045C0001FA7817161F2280125DF0DF9931F478133
:1045D0009191F2480125E00FF9931FE5544CAA9000
:1045E000A8781C0125E10FF9931F4751215131A9EA
:1045F000E6510225E210F9931F759CD814518DC91C
:104600003D3A0025E310F9931F5DA0DC185591CDCC
:104610003D3A0025E410F9931FDD894D11D5985CD2
:104620003C6A0025E510F9931FDD8D5115D99C607A
:104630003C3A0025E611F9931F9BA998A098A098F1
:10464000A8796C0025E715F9931FDD094908490889
:104650004908490849C83D3A0025E815F9931FDD86
:1046600049084908490849084908C93D3A0025E967
:1046700014F9931FDDC949450849C84C8850C83D05
:104680003A0025EA13F9931FDD499048CC480849C0
:1046900044C97B740025EB0EF9931FDD49FE7F7240
:1046A0008F0E0025EC1AF9931F2E302E222C222A71
:1046B0002628224DC44448167107F3C00025ED1882
:1046C000F9931F2E306E6C6A22682286248424A2FD
:1046D000E6601E180025EE18F9931F2E306E6C2A26
:1046E0006228622684248422E6E01E180025EF1248
:1046F000F9931FBC262A224E77115131F5E000258F
:10470000F012F9931FDD493E2149151215728F0EE3
:104710000025F112F9931FDD4954485408497E726F
:104720008F0E0025F212F9931FDD495448544808B2
:10473000493EB9470725F312F9931FDD497E42121E
:10474000151215728F0E0025F412F9931F614D4852
:104750009E90A40A898AA9470825F512F9931F613A
:104760004D54485408497E538F100025F612F99392
:104770001F614D544854480849BEA9470825F712FF
:10478000F9931F614D483E21890A898AA947082566
:10479000F811F9931F0B9B442151116172F1A8018B
:1047A00025F912F9931F0BA398A890B08838C17807
:1047B000840025FA12F9931F8B40B988B090A8980D
:1047C000207B840025FB13F9931F0B9BA098A098D6
:1047D000A098A0187B840025FC0BF9931F0B1BBF2E
:1047E000470825FD11F9931FDBA298A098A098A077
:1047F0007A840025FE0BF9931FDBA2DE230425FF3C
:1048000012F9931FB338B188A890A098187B840040
:10481000260014F9931F2E2AD15449444548D550F7
:10482000547AA40026010CF9931FA558CD3DAE0182
:10483000260211F9931F2EACE62A30B388B878B45B
:104840000026031CF99327229329098990989088C0
:10485000AC22D264921549563115F1C00026041BD2
:10486000F9933D2E302428242A244822242224454A
:104870009048509230792400260515F9931F456021
:10488000DCCC81C44D91848C92A8786800260616F1
:10489000F9931F45605C440C0545544C265964222D
:1048A000230F0D26070FF9931F515C2E53C489CD9A
:1048B000430326081AF9931FFA2428265148544422
:1048C0005848544C44489048CC3C3400260911F9CF
:1048D000931F9BA9985421B98A49358F00260A1441
:1048E000F9931FE5544CAA90A890A8982CB2490FB0
:1048F0000E260B14F9931F614C8A6CB20A890A893F
:104900008A49358F00260C13F9931FA3C0B0A998CC
:10491000A098A098A8791400260D19F9937B2A264F
:10492000282628266A2C6C2A26282628266A1E0570
:1049300000260E17F9931FBCE6428A6242444246A3
:10494000898C04C5813D3000260F15F9931F614DF8
:104950005444C88844FE248BB88379600026101C18
:10496000F993F5242A242A242A242A242A242A24CE
:104970002A242A242AE41E1A00261121F993F52458
:104980002A2448244824262224262244222444225D
:1049900024454C48444CC83D340026121BF993F57D
:1049A00044464446242293884C729149442632223C
:1049B0003222F7D00026131BF9931F2A2628262A15
:1049C000222C222E302E222C222A2628261E1C00A3
:1049D000261619F9931F2E45544C504CAA90A890B6
:1049E000A890A890A8907B680026170FF9931F2E17
:1049F0006EAAA8E6E4EFA101261913F9931FE95462
:104A00008DC9894D45CC48983C3800261A11F99338
:104A10001FFD410C45D04450953C3600261B11F932
:104A2000931FFD4144044DC450993C5600261C116F
:104A3000F9931FFD414C509AA01029796C00261D56
:104A400015F9931F71609C9444504C504C54481479
:104A50003D3800261E11F9931FFD4144504C229110
:104A60003079AC00261F14F9931F255548504C503F
:104A70004C94449C607A7000265419F9933B6E283C
:104A800024C9C4485448544CA298A0985421F7D043
:104A90000026551AF9933B2E224846242293A890CB
:104AA000A89844314131A942EEA10126561BF99341
:104AB0001F2862226462242A242A26514C504C501A
:104AC0004CAA907B6800265718F9931F2E45544C2A
:104AD000504C504C504CD4544CAA907B68002658F3
:104AE0001AF9931F328822242A242A46262A2428A7
:104AF00026514854C83D3400265915F9931FA5582E
:104B00004854489858485448501A7B7000265A1107
:104B1000F9933B6E2824C937456D4EEEA101265B03
:104B200012F9933B6EE824229337456D4EEEA101B6
:104B3000265C11F9931F286222E49BA26E4EEEA11F
:104B400001265D14F9931F2E6E6A226822A8D5549F
:104B5000CDC93D3400265E13F9931F32C88442E468
:104B6000C68AA8C6E43D3400265F11F9931FA51834
:104B700015991815918D3D3800266013F9933B6EF9
:104B80006CAAA8E6E4A62C6EAA1E1C00266119F9E0
:104B900093574226245F8544C5248A098A898A0856
:104BA0008B888B470126621AF9933B2E222C222AEE
:104BB000262826554CA298A888B088B878140026D4
:104BC0006316F9933B6EAAA8266222E2E08185442F
:104BD0008454DC3C0226641BF9933B2E222C222AAF
:104BE0002628265548548C845444544CCC3D3400DB
:104BF000266511F9935742E6E49BA2566373F128A8
:104C000000266613F9933B6E6CAAA8E6A6A86A6C08
:104C10002E1E050026671CF9933B2E222A262826E5
:104C20006662222422444E64244222422A6E1E01DD
:104C3000268011F9931FFA224E9B18397511F7D06F
:104C400000268113F9931FFA224E224A4EAB08B96F
:104C5000887B6800268216F9931FFA224E224A4E5C
:104C600026464E2A422EE21E1A00268315F9931F6D
:104C7000FA224E2226424E8B9808B9887B6800267D
:104C80008418F9931FFA224E2226424E26464E22BF
:104C900026422EE21E1A00268519F9931FFA224E8B
:104CA0002226424E2226424E2226422EE21E1A0082
:104CB000271312F9931F5160BAC0208928893079CF
:104CC000A400271413F9931F8D9C32399109990977
:104CD000212A7A1400271516F9931F5D54C4CCC4F9
:104CE0009AAAA99A89351351F14000271615F9930C
:104CF0001FD98CCD05C5D1D005C541C4CD3C0C0014
:104D0000271714F9931F654C54445C8AA898A098FF
:104D100084F16800271814F9931FA1881099DC9476
:104D20008490848C9C3C1200274F11F9931FF82427
:104D30002A248AAB8392F7C000275010F9931FFCF6
:104D4000E4E0608A5721F7E000275117F9931FD953
:104D500049944494449444944494C441C83D3400D8
:104D6000275217F9931FDDC5414494449444944459
:104D7000944494C43D380000005F0203020404011F
:104D80000205080D00FE09FE090001D703DC058FAE
:104D90002008D8C1E7FF3300210BD8C1A7E67DA7C3
:104DA000E46400220CD8C1274661144639FF06236B
:104DB00012D8C1678DC2281BB6281BB6288C725624
:104DC000002412D8C1A7C64396A4493C2769920D76
:104DD000714E062512D8C12766511265519CC7A590
:104DE00030296539112611D8C1E7AC466194AA5122
:104DF0001265E192D3002709D8C1A7E675FE1528F0
:104E00000FD8C1A7C7799CD7913C47722200290EC1
:104E1000D8C127E6489E2379398F73062A0ED8C158
:104E20002746A9388C6A94F30B002B0BD8C1E75E98
:104E30001DD43CE7052C09D8C1E73FAE6A4E2D0AC8
:104E4000D8C1E7FBA0F30B002E0AD8C1E7BFC67399
:104E50008E022F0BD8C167C9E3BEE74C003013D8D0
:104E6000C1A7AA51164661144661146651AA53019E
:104E7000310DD8C1A7C66A92F73AE844003211D87A
:104E8000C1270E591885799CAA713EEC3400331065
:104E9000D8C1A70D7B5CDE913C0AB32127023410F8
:104EA000D8C1A7C76A124659B761CE732200351020
:104EB000D8C1A70D535ED9B4BC1466434E04361155
:104EC000D8C1A78E715ED9B4288CC26CC88900374E
:104ED0000DD8C1A70D7B5C8FF338CF193814D8C11A
:104EE000270E59188551980D59188551980D39116B
:104EF0003911D8C1270E59188551A62D7939DCA949
:104F0000003A0DD8C1E71ECF39533CE728003B0CCF
:104F1000D8C1E71ECF39CBAAE6043C0FD8C16789B8
:104F2000BB233992233992D3003D0BD8C1E779D8FE
:104F300089C3CE153E0FD8C1A7E5488EE4488EC47C
:104F4000DD59003F0FD8C1270E591885795CCF294C
:104F500039154015D8C1270E5918855134255125CA
:104F6000912A518E0C39114114D8C1A7AA51164665
:104F7000611446C314466114E634004213D8C1A735
:104F80000D61568CB26C08B3629465434E05430EB6
:104F9000D8C1270E5918E53D66434E044414D8C1C4
:104FA000A70D61568CC2288CC2288CB26CC8A9008F
:104FB000450FD8C1A70D535E1FC2BC3EEC3400465E
:104FC0000DD8C1A70D535E1FC2BC9D054711D8C1A6
:104FD000270E5918E54D531865DA92D3004814D8B6
:104FE000C1A78551188551180D5318855118853959
:104FF0000D490CD8C1A70D6ADED74127024A0CD84B
:10500000C1A70E6ADE5B71A7024B12D8C1A78551FA
:10501000560A93544ED228CC8A390D4C0BD8C1A7CE
:10502000E5FD3EEC34004D14D8C127A5499A684AE5
:105030004F95A892266992E634004E15D8C1A785EF
:105040005118695112B5449914466114E634004F61
:1050500014D8C1270E5918855118855118855198B3
:105060000D39115010D8C1A70D5A188551180D5A75
:10507000DECE025116D8C1270E5918855118855118
:105080001825514B36E4480E015214D8C1A70D5AC9
:10509000188551180D5A92466156CC69005313D8A1
:1050A000C1270E5918E53932E4481E85D9901301FD
:1050B000540BD8C1270D4398F73B195514D8C1A7F5
:1050C0008551188551188551188551980D391156FB
:1050D00011D8C127A5491A653D26699226714E0649
:1050E0005714D8C127A5499AA4499A4495A812559E
:1050F0003A6539115813D8C127A5491A6561125765
:10510000C22C4A9334A701590FD8C127A5491A6563
:105110006112E7DDC9005A0DD8C1A70D7BDC7B3ECB
:10512000EC34005B0CD8C1270E61DEF72127025C4E
:1051300012D8C127E5399223399223399223794E27
:10514000035D0BD8C1A70D793F0E39155E0CD8C190
:10515000A7C64998E5FC1B005F0AD8C1E7FF380CD9
:105160003904600AD8C1077324E77F066110D8C1EB
:10517000E77DC8916C90C228D3969C066211D8C175
:10518000A7E52D9B168551186951B21301630ED8FE
:10519000C1E77DC8C2282F66434E046412D8C16798
:1051A000C96B4B944961144699B6E434006510D834
:1051B000C1E77DC8C26898F2301B722200660DD824
:1051C000C1A78E593D1EC4BC9D016710D8C1E77DA3
:1051D00089B2C63147862CCC86086811D8C1A7E5AC
:1051E0002D9B16855118855198D300690CD8C1673D
:1051F000CE71BDEBA013016A0CD8C1E792E37AB778
:105200008E1B006B0FD8C1A7E56DA5708DC2AC9841
:10521000D3006C0BD8C127EAFD3AE844006D10D8E2
:10522000C1E775915AA24A54892A694E036E10D873
:10523000C1E739D9B4288CC2288CC29C066F10D81B
:10524000C1E77DC8C2288CC228CC869C087010D8C3
:10525000C1E739D9B4288CB428D9F23200710FD8FB
:10526000C1E77D8932298C326DC95B00720BD8C1D0
:10527000E73919B37A3B037310D8C1E77DC8C24C34
:1052800047B4301B722200740DD8C167CDE341CC06
:10529000DBC29D08750BD8C1E739EB1F979C0676DA
:1052A0000DD8C1E739EB3149933827037710D8C1BE
:1052B000E7B592265125AA74CA722200780FD8C188
:1052C000E739CCA25456A32CCC69007912D8C1E797
:1052D000398CC2288C326DC9A3301B22007A0BD8BE
:1052E000C1E779983B0F3B0D7B10D8C1278F798E92
:1052F000A43A12E739B2D3007C09D8C1A7E6FD9DD4
:105300000C7D10D8C1A7ED481EE7889A2379B89381
:10531000017E0CD8C1274659528B72FE1100000045
:1053200004FFFF00005F02030203030101040507FD
:1053300000FF06FF0600012A0272039320057D7D0F
:105340001E21087DADB01DCA0122097D9D52122586
:105350003903230B7DED241994CAA0940124097DFF
:10536000EDA5B625C90C25097D8D30CA9AC218262F
:105370000A7DED2CC92A59120327077DADB0CE0254
:1053800028087DAD2C6CCD0129097D9D346CCB1195
:10539000002A097DED24CBB64A0C2B097DFD301A7D
:1053A000A430072C077D7D16AD062D087D7DCA90A3
:1053B00093002E077D7DBAA6032F077D7D246B27E2
:1053C000300C7DAD2C89922889922C0731087DAD57
:1053D0004C6C9B0132097D1DA998D58618330B7D35
:1053E0008D218CD4248A7400340B7DAD4C4AA221CB
:1053F0000B7300350B7D8D2109D7248A7400360A82
:105400007D1D299C2A51A403370B7D8D21CCC22CF4
:10541000CC1100380A7D1DA92455A24807390A7D00
:105420001DA9124563A4033A087D6D4D47341D3B09
:10543000097D6D4D47B422003C087D7D24AB96016B
:105440003D097D7D6C88871C043E087DEDB4564780
:10545000003F0A7DAD2C09B31CCA01400B7D1DA97C
:1054600092288992EA00410C7D1DA912254312253C
:10547000510C420A7D8DA93255A2640743097D1D56
:10548000A91296221D440C7D8DA912255112253B8F
:1054900000450B7D8D2109A7301C6200460A7D8DD9
:1054A0002109A7B00E01470B7D1DA912264A14CD74
:1054B00000480E7D8D2889922189922889620049B1
:1054C000087D9D2D6C9B014A097DBDB0258A740025
:1054D0004B0B7D8D2829695A1295014C087D8DB0A2
:1054E000E310034D0E7D8D2819922189922889623F
:1054F000004E0D7D8D285112A5A2244A14034F0C95
:105500007D1DA912255112453A00500B7D8DA9121F
:105510002553984300510C7D1DA9122551A2446AC0
:1055200002520B7D8DA912255312950153097D1D41
:10553000A9352AE90054077D9D2DEC0E550D7D8D72
:1055400028899228899228D201560C7D8D2889922B
:105550002889224D07570E7D8D288992281992217E
:10556000896200580C7D8D2889224DAA443100594A
:105570000A7D9D5212255958075A097D8D21CC1A52
:1055800087185B087D9D296C9C015C077DDDEE2002
:10559000005D077D9DB1D30C5E087DAD2CC959011E
:1055A0005F077D7DC6210660077D9D346706610B20
:1055B0007D7D708992444A6200620A7D8D309C2A0A
:1055C00051B20363087D7D500A531D640B7DBD30CD
:1055D0005AA2248A660065097D7D504A8C3A00668D
:1055E0000B7DAD2C89B22DCC1100670A7D7D7089B1
:1055F00022295D00680B7D8D309C2A5112C50069FF
:10560000097DAD1C116B33006A0A7DBD1C0A4B4934
:1056100016016B0A7D8DB012694954066C077D1D19
:10562000B1DB0C6D0B7D7D2C8986244AA2186E0A95
:105630007D7D6CAA444914036F097D7D50AA449175
:105640000E700A7D7D6CAA44C91402710B7D7D70B9
:105650008992281A130072097D7D6CAA843904731B
:10566000087D7D7051951D74097D9D30DBC2540607
:10567000750B7D7D2C4AA2248A6600760B7D7D30D9
:10568000899228C97200770B7D7D2C4AA2644886D6
:105690001878097D7D2C8A34A90C790A7D7D2C4AE5
:1056A000A24A56037A097D7D6CC86A430C7B087D4B
:1056B000BD9A588D017C077DADB077007D0A7D9D38
:1056C00034D4C22C47007E077D9DEECC0000000044
:1056D00004FFFF000000064C11241FBECFEFCDBF1A
:1056E000DFE7DEBF12E6A0E0B0E6ECEDFEEC02C0C4
:1056F00005900D92A437B107D9F72FE6A4E7B2E6DB
:1057000001C01D92A83CB207E1F71BE2CCE6DBE248
:1057100004C02197FE010E945F67CB36D107C9F70D
:105720000E949B4F0C946C670C940001662329F037
:105730006A3019F0862F90E008958FEF9FEF08955B
:10574000AF92BF92CF92DF92EF92FF920F93CF93DF
:10575000DF93EC01DA017901942F9770E1E0F0E03A
:105760009F01092E01C0220F0A94EAF7522F6E0101
:105770008AE8C80ED11CF601808140E0823018F41E
:10578000422F813049F15D01F8EFAF22E8ADF9AD6C
:1057900028813981D90150968C918A9D90018B9DE9
:1057A000300D1124620F731FDF01A60FB71F011107
:1057B0001AC0EA0EFB1E8C91842B85278D93AE15A3
:1057C000BF05C9F7DF91CF910F91FF90EF90DF9068
:1057D000CF90BF90AF90089550E0D5CF440F550FB4
:1057E000E114F10479F33C91342B35273C939F5F0E
:1057F0009770E1E0EE1AF1089111F0CF2CAD3DADBC
:10580000A20FB31FF6018081823028F4813009F0A5
:1058100051E041E0E5CF51E0E3CF80E0089590E032
:1058200080E008958DB79EB72091C26F3091C36F0D
:105830002115310571F0821B930B20913B60309153
:105840003C608217930724F480933B6090933C6004
:105850000895885C9F46F1CF8091A66F80FD0DC0B2
:1058600080917F6F9091806F24E0969587952A951F
:10587000E1F7817091E08927089581E0FBCFE2E1B3
:10588000F9E0E491E817C1F0E3E1F9E0E4918E1763
:10589000B1F0E4E1F9E0E4918E17A1F0E5E1F9E07F
:1058A000E491E81307C0E3E0F0E0ED5CFF4981E03C
:1058B0009081911180E00895F0E0E0E0F6CFE1E022
:1058C000F0E0F3CFE2E0F0E0F0CFCF93C82FE0912B
:1058D000EB6EF091EC6E30E020E0482F6EE087EE4A
:1058E0009EE60995C093A06ECF919CCFCF93DF9396
:1058F000C3EEDEE68FAFEAADFBAD0190F081E02DA7
:1059000087EE9EE60995EAADFBAD0280F381E02DBE
:1059100087EE9EE6DF91CF910994CF93DF93FC0150
:10592000A0ECB1E015969C911597C385D48548816C
:10593000440F23E030E001C0220F4A95EAF7922B92
:1059400015969C930384F485E02DE081F0E0EE0F42
:10595000FF1FE75CFB498CE59FE380839183DF9128
:10596000CF910895FC018081807391F0442381F0F0
:10597000DB0112964C938081853211F5413049F458
:10598000605F7F4FDB018C91877F8C9385E2808302
:105990000895423019F46F5E7F4FF4CF443019F40C
:1059A0006E5E7F4FEFCF483019F46D5E7F4FEACFC8
:1059B000403419F46A5E7F4FE5CF695E7F4FE2CFD6
:1059C000413031F4605F7F4FDB018C918860DDCF27
:1059D000423019F46F5E7F4FF7CF443019F46E5E9A
:1059E0007F4FF2CF483019F46D5E7F4FEDCF4034DA
:1059F00019F46A5E7F4FE8CF695E7F4FE5CFCF93A2
:105A0000DF93EC01EB85FC850684F785E02D1082A1
:105A1000EB85FC856681778141810196A3DFEB856B
:105A2000FC85668177814281CE0102969BDFEB8502
:105A3000FC85668177814381CE01039693DF8C815B
:105A40008130E1F48D81EB85FC85813009F05AC00D
:105A50008581882399F08091E105908121E030E0F3
:105A600001C0220F9A95EAF7822B8093E105EB851E
:105A7000FC85A085B185858111968C93EB85FC858D
:105A80000088F189E02D8A8190E1899F900111249D
:105A90008981822B8083EB85FC850288F389E02D48
:105AA0008B818083EB85FC850488F589E02D8885D2
:105AB0008083EB85FC85808180FD05C00484F585AD
:105AC000E02D898580838C8140E4811101C040E014
:105AD0008F8190E8811101C090E0EB85FC85068400
:105AE000F785E02D2E8180E1289F900111248A8581
:105AF000880F822B2881822B842B892B8083DF9136
:105B0000CF9108958111BACF8481882309F4B6CF4B
:105B10002091E105308181E090E001C0880F3A9545
:105B2000EAF7809582238093E105EB85FC85A285C9
:105B3000B3858481A1CF9091A56F93FF13C091701D
:105B40008091966F80FF09C0992349F18091A46FDD
:105B500084FD05C08BEF98E00895992301F188EF4B
:105B600098E008952091A66F21FF07C091FD1AC00B
:105B700094FF1BC08BEE98E0089522FF07C092FDB2
:105B800017C095FF18C08FED98E008958823B1F0F5
:105B90008091A46F83FF12C089ED98E0089585EF8E
:105BA00098E0089580EF98E0089586EE98E00895D3
:105BB00082EE98E008958CED98E0089586ED98E0E7
:105BC00008958091A56F8970893069F49091966FDE
:105BD000892F817090FF08C08091A46F8295817099
:105BE00091E08927089580E008959B01DC011896D3
:105BF000ED91FC9141E067E10994E091EE64F09150
:105C0000EF64309731F08091E964882311F090E0DF
:105C1000099408958A579F4FFC018081082E000C3B
:105C2000990B01960895DC01ED91FC910190F081B2
:105C3000E02D0994EF92FF920F931F93CF93DF9380
:105C40008C017B01D0E0C0E0F701EC0FFD1F6491F7
:105C5000662361F0D801ED91FC910190F081E02D77
:105C6000C8010995892B11F02196EECFCE01DF9165
:105C7000CF911F910F91FF90EF900895AF92BF9237
:105C8000CF92DF92EF92FF920F931F93CF93DF9308
:105C90006C017B018B01040F151FEB015E01AE1837
:105CA000BF08C017D10759F06991D601ED91FC9159
:105CB0000190F081E02DC6010995892B79F7C50186
:105CC000DF91CF911F910F91FF90EF90DF90CF90D8
:105CD000BF90AF900895FC0155894689252F30E08B
