:100200000C94222D0C944C2D0C944C2D0C944C2DB4
:100210000C944C2D0C944C2D0C944C2D0C94DD57BF
:100220000C944C2D0C948C580C944C2D0C947D58A3
:100230000C944C2D0C944C2D0C944C2D0C944C2D5A
:100240000C944C2D0C944C2D0C940C570C944C2D60
:100250000C944C2D0C946D560C9467560C9473565C
:100260000C944C2D0C944C2D0C944C2D0C944C2D2A
:100270000C944C2D0C944C2D0C946D580C94F05601
:100280000C944C2D0C944C2D0C944C2D0C944C2D0A
:100290000C944C2D0C943B580C944C2D0C944C2DE0
:1002A0000C944C2D0C944C2D0C94B6570C944C2D56
:1002B0000C944C2D0C944C2D0C944C2D0C944C2DDA
:1002C0000C944C2D0C944C2D0C944C2D0C944C2DCA
:1002D0000C944C2D0C944C2D0C944C2D0C944C2DBA
:1002E0000C944C2D0C944C2D0C944C2D0C944C2DAA
:1002F0000C944C2D4E414E494E495459494E46CDD1
:10030000CCCC3D0AD7233C17B7D13877CC2B3295CC
:1003100095E6241FB14F0A000020410000C84200AA
:10032000401C4620BCBE4CCA1B0E5AAEC59D740074
:10033000407A10F35A00A0724E18090010A5D4E8B4
:100340000000E87648170000E40B54020000CA9A47
:100350003B000000E1F50500008096980000004099
:10036000420F000000A086010000001027000000DE
:1003700000E803000000006400000000000A000024
:100380000000000100000000002C76D888DC674FD8
:100390000823DFC1DFAE59E1B1B796E5E3E453C608
:1003A0003AE651997696E8E6C28426EB898C9B6200
:1003B000ED407C6FFCEFBC9C9F40F2BAA56FA5F4AA
:1003C00090055A2AF75C936B6CF9676DC11BFCE0D2
:1003D000E40D47FEF520E6B500D0ED902E03009425
:1003E0003577050080841E080000204E0A000000BA
:1003F000C80C333333330F986E12831141EF8D21C4
:1004000014893BE65516CFFEE6DB18D1844B381B2A
:10041000F77C1D901DA4BBE424203284725E2281EF
:1004200000C9F124ECA1E53D274546476566670014
:10043000202B2D2E303132333435363738396800A1
:10044000466F7263652073796D6D2E00302B737962
:100450006D6D0053796D6D657472696300496E63EB
:100460006C2E2030007A6F6F6D00446F7473004CF7
:10047000696E6573003E2000204D6178206C6F6FBF
:10048000702074696D6520287573293A20002063F7
:100490006F6E7472617374206E203D3D3E207365F3
:1004A0007420646973706C617920636F6E7472611B
:1004B0007374205B302D3235355D00206C6F672002
:1004C0003D3D3E20746F67676C65206461746120F8
:1004D0006C6F6767696E6700206D7367203D3D3EF6
:1004E00020746F67676C65207072696E746F7574C5
:1004F000206F66206461746120746F2F66726F6D67
:10050000206D61696E20626F6172640020766F6C8D
:1005100074203D3D3E20636865636B20766F6C748C
:100520006167657320262074656D706572617475EE
:10053000726500206A6D7030203D3D3E206A756D09
:100540007020746F2030202864697274792072657D
:1005500073657429002073777220203D3D3E20741E
:10056000726967657220736F667477617265207255
:1005700065736574002077647420203D3D3E2074CF
:10058000726967676572207761746368646F67205A
:10059000726573657400203F202D207072696E743F
:1005A00020746869732068656C70207465787400C5
:1005B000756E6B6E6F776E2065762E2000657665A2
:1005C0006E7452656C65617365006576656E74481E
:1005D0006F6C64006576656E744C6F6E6750726503
:1005E0007373006576656E7450726573730065761B
:1005F000656E744C6F6E67436C69636B00657665FE
:100600006E74446F75626C65436C69636B006576EC
:10061000656E74436C69636B002000200050494E86
:100620003D0073697A656F6628753867325F756952
:100630006E745F74293D005350492070696E206DBF
:10064000617070696E67206661696C656421005035
:100650006F776572206F6E207265736574004272E9
:100660006F776E6F757420526573657400485720FC
:100670005265736574005357207265736574005733
:100680004454207265736574005550444920726566
:10069000736574202875706C6F616429004D56492C
:1006A0004F206E6F74206F6B21004D56494F206FA5
:1006B0006B004254206973206F66660042542069C3
:1006C00073206F6E002C20004B31393744697370F2
:1006D0006C6179004B313937446973706C617920F2
:1006E00072756E6E696E67206F6E206478436F72EC
:1006F00065001B1D22232C206669666F5F72656191
:10070000723D002C206669666F5F66726F6E743D85
:10071000002020206669666F5F73697A653D00205E
:100720003078003A20006669666F5F697346756CC1
:100730006C3A2073697A65206D69736D61746368C2
:10074000006669666F5F6973456D7074793A2073EE
:10075000697A65206D69736D6174636800BD378661
:1007600035ACC5273717B7D1386F12833A0AD7236C
:100770003CCDCCCC3D0000803F000020410000C8B3
:100780004200007A4400401C460050C347002474D5
:1007900049454550524F4D3A2073746F7265206F32
:1007A0006B00203B00454550524F4D3A206E6F2064
:1007B0006461746100454550524F4D3A2072657333
:1007C000746F7265206F6B002C20657870656374A0
:1007D00065642000454550524F4D3A207265762E93
:1007E00020004E657720696E633A2000203E003A73
:1007F000203C20004F6B00496E76616C6964206379
:100800006F6D6D616E643A2000436F6E7472617338
:10081000743A203C6E6F206368616E67653E0075B8
:1008200073003D002A004D41582031305E00746550
:1008300073746D61783D003D002A004D494E2031B2
:10084000305E00746573746D696E3D0054696D654A
:10085000207370656E7420696E2074726F75626C9F
:100860006573686F6F744175746F7363616C65282D
:100870002900583D00436F6E74726173743A203CD6
:100880006E6F206368616E67653E00436F6E7472C1
:100890006173743D0020007800636F6E7472617341
:1008A00074006C6F67006D7367002C2000766F6CAE
:1008B000740054657374696E67206469727479207A
:1008C0007265736574006A6D703000546573746985
:1008D0006E672053572072657365740073777200DA
:1008E00054657374696E67207761746368646F67B9
:1008F00020726573657400776474003F0020434183
:100900004C20666F756E6421002043414C00304CD2
:1009100000202769495E2A2A542D2A72662A2A2A2B
:10092000465F2A654C2A2A2A433D2A6374582A675F
:100930004527222A2A3F2A2A2A2A2A2F2A2A2A2AED
:10094000502A2A2A2A2A4D2A2A2A592A402A51324A
:1009500052692A2A2A2A2A2A2A2A5C6E682A2A2ADC
:100960004B6A2A752A202A5747612A6F622A352A3C
:1009700036312A2A2A3737374E2A342A482A392A42
:10098000414A564A55442A2A302A79642633396125
:10099000385761726E696E672C204B31393720648D
:1009A00075706C2E204450005761726E696E672C12
:1009B000204B313937206E3D00307800202B204FFE
:1009C000762E52616E676500203078002C2028005A
:1009D00020202020200020484F4C440020202020B0
:1009E000004155544F0020202020002052454C004B
:1009F0002020200020414300732F0067726170683F
:100A00002073697A6521002C20673D002C20633D0E
:100A100000693D002020202000484F4C4400202049
:100A20002020202020202020004D696E20004176CB
:100A30006720004D617820002020200052454C00A6
:100A400020200041430020202020202020202020A2
:100A50000020202000524D54002020200043616CD3
:100A600000202020200052434C2000202020200085
:100A700053544F2000484F4C440020200064420053
:100A80002020200052454C002020200042415400EC
:100A900020202020004155544F00202000414300D9
:100AA00020202020202000524D54202020002020F3
:100AB00020200052434C2000202020200053544F7F
:100AC0002000202020202020002041432020200042
:100AD0002020202020200043616C202020002020A6
:100AE00020200052454C200020202020004241546C
:100AF00020002020202020004155544F20003B2082
:100B0000003B20003B20003B200020414300206DA3
:100B1000733B20004254207475726E6564206F6EC2
:100B2000004254207475726E6564206F6666002002
:100B30002020003C2D3E003C3D3E00202020006255
:100B40007420006669666F5F67657453697A653AF9
:100B50002073697A65206D69736D617463680046FE
:100B600049464F2046756C6C00636C656172656424
:100B700000444554454354454400436F6C6C6973CD
:100B8000696F6E20007261773A20003A200053505E
:100B900049207061636B6574202D204E3D0020203C
:100BA000006442002041006D4100C2B5410020E2D6
:100BB00084A6006BE284A6004DE284A600205600C5
:100BC0006D5600C2B043005600562C200020430052
:100BD000543D00537461636B3D0000000201040644
:100BE00003000353616D706C652074696D65202886
:100BF000732900592061786973004E756D2E20535A
:100C0000616D706C657300436F6E74726173740014
:100C10004175746F2073616D706C6500526F6C6C00
:100C2000206D6F6465003C20582061786973203E18
:100C30000053686F7720793D30003C20592061785F
:100C40006973203E00477261706820747970650096
:100C50003C204772617068206F7074696F6E7320FA
:100C60003E003C2053746174697374696373203E61
:100C700000496E636C7564652053746174697374A4
:100C800069637300496E636C7564652054616D62BD
:100C9000004C6F672074696D657374616D700053EB
:100CA000706C697420756E69740053616D706C6549
:100CB0007320746F20736B697000456E61626C65A0
:100CC00064003C20425420446174616C6F67676922
:100CD0006E67203E0053686F77206C6F6700526527
:100CE0006C6F61642073657474696E67730053611F
:100CF00076652073657474696E677300426C756500
:100D0000746F6F7468004772617068206F707469E7
:100D10006F6E73203E3E3E0044617461206C6F67CD
:100D200067696E67203E3E3E005265617373696776
:100D30006E2053544F2F52434C00457874726120FB
:100D40004D6F646573003C204F7074696F6E732043
:100D50003E0045786974003C204261636B00457237
:100D6000726F722028736565206C6F672900636F4E
:100D70006E6669672072656C6F6164656400636F9D
:100D80006E666967207361766564005F0204030420
:100D9000050103050E1500FC10FC11FC030506936C
:100DA000097420095EC33FFEFF9700210E5EC39BBE
:100DB000EC62FD7B94B3EB710222145EC39388A0B6
:100DC00088A088A088A088A0883CFE3F0223285ED7
:100DD000C33F8C4CA04CA088608CD401CD01598CB1
:100DE000604CA04CA04CD801CD01558C608C608C1F
:100DF000604C3C4E0024265EC39BB0A89D842A1103
:100E00009128114111C952625209491141114111F0
:100E1000211109A903B95A6179440025275EC33F0E
:100E200004914C519088221109290B310A6159E132
:100E30006089C188320911211145226A848884E6BB
:100E4000310726225EC33FCC68A18C9C8C9C8CA071
:100E50008464A968A5881A25324244528AA82CA61F
:100E600068E23107270B5EC39BB0DEE3FF33002847
:100E7000165EC3A7ECA8ACECACB0ACB0BE16961630
:100E800096961E960129155EC34FF0F4B0B462D554
:100E9000C27A2B2C2B3BBA5612002A1A5EC33F5E35
:100EA0000847478A840C1D08CE46844A08CA8849E8
:100EB000C9E331002B105EC33F26C21A1E0C1D0C65
:100EC0000AEB1E3F2C0E5EC33FFE9FC9D20E0BA73E
:100ED0000E042D0E5EC33F7E792075208FFF0E001D
:100EE0002E0C5EC33FFE9FCDAEC709002F175EC319
:100EF0006BB05A61596159615961E160E160B5C2F5
:100F0000F2D80130275EC33F0CA5DD8C985494D4F1
:100F10009010915084904C8890488C90848C1091C3
:100F2000D094223121394B7A9C00310F5EC33F941B
:100F300028A584B0FEDFE3040032145EC33F0CE555
:100F400099D0B06EF5B1EC81D4813CE60033175EE8
:100F5000C33F4CE1F1B05A49526AC59A05891D0454
:100F6000D2E30400341E5EC33F98B0EC2869846469
:100F700088A088608C9C8C9890D8C1D0C1A8B0F60D
:100F8000B800351A5EC33FC841D84198B026917762
:100F900042D2C23A92123B08A4C7050036215EC372
:100FA0003F14E199B0ACB04CA044198D94D4909802
:100FB0009098909890989490DC213D2E0037175E81
:100FC000C33FC481D481ACB070B05A61B5C26A85E8
:100FD000D5E3080038245EC33F10A59D90989098F3
:100FE00090D88CDC84E4A8889C90949890989098F1
:100FF000D090D841203D2E0039205EC33F10E19DA6
:1010000090946642624262524253077214C2C2C155
:101010006241530781F438013A0E5EC33F9ECFAE62
:10102000C7B3D9F538013B0F5EC33F9ECFAEC7575C
:10103000B3C38A13023C135EC33F4251422E67A7DB
:1010400017134F4BC7E32D003D125EC33F6E0F8653
:101050000EE6B138183A98C75F023E115EC33F6A88
:10106000611ECF4EAEA41C95C757003F155EC353FB
:10107000DD4198905898B05A1DAB473ABB1E2700E7
:1010800040275EC33F10E141D49094988C8C8DC86A
:101090008DC48C0A2119092119899119912399105C
:1010A0002169E183C07A1C41225EC33F5474B0F0D1
:1010B0006C44A8846488644CA08C5C90DCD98194D6
:1010C00022391939193979AC0142255EC3FF41D85B
:1010D0008194D4909890989094D481D441989432EB
:1010E00021312131213121A9A103A97B9C00431980
:1010F0005EC33F10E141D4D090988CB03E1E169E46
:10110000923A08A4C7050044235EC33F84E1419896
:10111000D0946642624262426242624262426242EB
:101120006242528AA60EC2EC710245195EC33FC4E8
:10113000C1D0C190B08E0FA40EA484757C307430E1
:101140008F350046155EC33FC481D48194B0C60775
:10115000610761C2FA3DCE00471E5EC33F10E14108
:10116000D4D0905890B08E6A846AE464E484C484D5
:10117000A6A40EE4EA7148285EC33F849890989034
:10118000989098909890989098D0C1D0C19098904D
:1011900098909890989098909890983CD600491282
:1011A0005EC33FC441D841A4B0FE97076107F13840
:1011B0004A115EC33FD0DDA9B0FEB320B9C37A9C0B
:1011C000004B235EC3BF9890942231193991391195
:1011D0004109C94A43114119392131213129654257
:1011E00062F358034C0F5EC33F84B0FE1F1F0C1DFB
:1011F000CC630D4D2B5EC3BF9C8C9CCCD4CCD40C4B
:101200001B89980819096D4422426444466464624B
:10121000D4C9C8C9C8C9C8C9C8C9C8C9630D4E2B73
:101220005EC3BF98D094D094109110910A192109EF
:101230001921114532214232124242114242445296
:10124000435243624262F298034F225EC33F4CE135
:1012500099944672327232723272327232723272D1
:101260003272425252436297F4B800501D5EC33F3F
:10127000C441D88194D490989098909890D4D0817B
:10128000D44198B0BEC7190051265EC33F4CE199C6
:1012900094467232723272327232723272327232F8
:1012A0007242524352621383B5C2D2C432005225F5
:1012B0005EC33FC441D88194D49098909890989000
:1012C000D4D081D441988C9C9098909894CE84C42A
:1012D000E4B106531A5EC33F4CE14194C6C28B8B06
:1012E000A7150BC50949491DC8D5E30200540F5E77
:1012F000C3FF01CD019DB0FEDFE3060055265EC3AE
:10130000BF9890989098909890989098909890986E
:10131000909890989098909890989490D841203D6B
:101320004E0056215EC3BF9C8C9C9098905894327E
:101330002131A1381941114191480951D2D961E1B6
:1013400078DC00572F5EC37FA4884C508C9A1835E8
:10135000316A8242468442221449444844494448FE
:1013600044914444CD4CCD8C0989098945C545C576
:10137000E30058215EC33F84589432A138194109D3
:101380004909D1D9B5941292227232724252AAE21C
:10139000E4B10659195EC3BF9C90989094989098B8
:1013A0008CA088A04828E9B07E8F13005A1B5EC32A
:1013B000FFC1D0C1ACB0AC70B0ACB0AC70B0ACB030
:1013C000EC01CD013DD6005B125EC3D341D84198FC
:1013D000B0FE7F7C1076100F015C185EC38BB0B43A
:1013E000B074B4B0B4B0B4B0B4B0B4B0B4B0743CD1
:1013F000065D125EC3CB41D841B0FEFFEC20EC206D
:101400001E06005E145EC33F54B4ECA884A448A03A
:101410008C5C543CFECF005F0D5EC33FFE7F7E4080
:1014200073408F0060115EC33F92E868616961E9B3
:101430006879FCA700611A5EC33FCEEB0E8287D5A8
:101440005D1D0889098909494D1D8891C8630E628F
:10145000215EC38BB05ED01D480D49890989098979
:10146000098909890989090D491D8485D0E302008C
:1014700063145EC33FEE0B0FA21409EB78582AEEFB
:1014800020AE1E0764215EC3A7B0EE28A40EA4847C
:1014900086C484C484C484C484C484C4A484A60EBE
:1014A000E446E43107651A5EC33FCE0BCFA484C483
:1014B000840E860E8684554BC51DC4D5E302006696
:1014C000145EC31FE1D95098B0D283B0834061FD50
:1014D0003D8E00671F5EC33FAE4B840E66A4F44C86
:1014E00066CE4E58D8F2202A4E464E464EE660CC86
:1014F0000A0068125EC38BB09ECC49940D49E9FF87
:10150000BFC71C0069105EC39BEC703CC2CA62FD81
:10151000E5DD3D0E6A125EC39FF0703C324363FD11
:10152000EF82C40EEB006B1D5EC38BB05E2912937D
:101530009113119490AC9C1094919319139AD24CDE
:101540001E6B006C0F5EC34B65B1FE5F1E481DC86D
:10155000630E6D235EC33F6E2546660E4A6494C8D3
:1015600028915122A34446898C121925324A649449
:10157000C8A8C718006E115EC33F8E45E624CA8610
:10158000A4F4FFDF630E6F1C5EC33FCE0BCFA484B9
:10159000C484E464E464E464E464C4A4941DD6E311
:1015A000020070215EC33F8E45E60EA486A4C4846B
:1015B000C484C484C484C484C48486A40EA424E8DB
:1015C00084350571205EC33FCE29A40EA48486C451
:1015D00084C484C484C484C484C4A484C60EE2467F
:1015E00084750372125EC33FAE45C824AC88A26600
:1015F00085F57B5C0173175EC33FCE0BCFA4144F00
:1016000013130F4B85491DC4D9E3020074135EC345
:101610003F1261A507610781C2FA51A0253D0E75F1
:101620001F5EC33F8EC584C484C484C484C484C480
:1016300084C484C484C484561D8891C8630D761DF7
:101640005EC33F6EE584C4A2C4528909C5C9088A35
:10165000088A444A88CE0EC7E3060077295EC33F56
:101660006E0545646462D404C5C804C5C8044990C5
:1016700004494428920889109208199319131213E7
:1016800092C71C00781C5EC33F8EA5C464E464044A
:10169000254467974A484A08CA8849A99AC71A0040
:1016A000791E5EC33F8EC584C484A4C484C48402EE
:1016B000450445044542D90A0B070B5652027A15D8
:1016C0005EC33F8E0FA40E64B59DD576F460E860CE
:1016D0001E73007B135EC33F1865A1B08E4349A7FC
:1016E00015EBEB521A007C0A5EC39BB0FEFFCF00E5
:1016F0007D145EC33F44A5B5B05ED38ECA0AEBED40
:101700009C611D007E105EC33FCE638B62648C8241
:10171000E8F13F0300000004FFFF00005F02030246
:101720000304010204060C00FE07FE08FF017B0310
:1017300016048B2007E6F8F94F00210AE6F8C9697C
:101740007730A700220CE6F8E1244BB224E713001F
:10175000230FE6F819936890922C890629C9092469
:101760000EE6F8F1704A3A8E49A7318700250DE65A
:10177000F8895222859D94488701260EE6F8A961D2
:10178000922561A5295372182709E6F8F1B4CE37DE
:1017900000280DE6F829611AA6E534CE1100290CBF
:1017A000E6F8E16A9C16D330C7002A0EE6F8C9595C
:1017B000521AC329A9E514002B0AE6F8596B83963F
:1017C000E60C2C09E6F8F92E6A3A062D09E6F879B6
:1017D00019746E002E09E6F8F92EEA14002F0BE6B4
:1017E000F859C234AC86390D300AE6F8C95AD4BF6C
:1017F000E9043109E6F8C9A1DA7127320CE6F8A943
:101800005396868D830E03330DE6F889831A86720C
:1018100092453B01340DE6F8E9A19644A5414C738D
:1018200002350DE6F88983920E719A64D14E360D19
:10183000E6F8C95A980E519664D14E370CE6F889ED
:10184000831AA6615AA700380EE6F8A9539664D108
:10185000942559B413390EE6F8A9539664D19086AD
:10186000994E013A0BE6F8B9893A26EA14003B0B87
:10187000E6F8B9893A266A3A063C09E6F899C3724D
:101880009D0C3D0AE6F8390DFAA033023E09E6F850
:1018900019E3629D053F0CE6F8A95316567330A76D
:1018A00000400DE6F8A95396244B9725DE09411018
:1018B000E6F8A9539664C9A064499664390C420DB0
:1018C000E6F8894316356D51CB9013430BE6F8A922
:1018D0005396A46DD14E440BE6F8894316F52F4379
:1018E0004E450EE6F8898392A64394A6830E0346DE
:1018F0000DE6F8898392A64394D66900470DE6F871
:10190000A95396A425258B76024811E6F8895992A9
:1019100025593228599225590E034909E6F8A96339
:10192000DA71274A0BE6F8C963DA54D329004B0F62
:10193000E6F8895912553231C9A25A0E034C0AE60B
:10194000F88969AF830E034D0FE6F8895962E9966D
:1019500064499664390C4E10E6F88959922552D2A2
:1019600049C9922C87014F0FE6F8A953966449960E
:10197000644916ED04500EE6F88943942559324423
:10198000699D06510FE6F8A9539664499674CA9466
:101990001C065210E6F8894394255932444916D55D
:1019A0007218530DE6F8A95396C47392453B01543F
:1019B0000AE6F8898396F64E015510E6F8895992A1
:1019C000255992255992453B015610E6F8895992BE
:1019D000255992454996843905570FE6F889599259
:1019E000255992257D4A72025810E6F88959924588
:1019F000495889B224CB6100590DE6F889599245BE
:101A00004998B653005A0BE6F889831A761D741864
:101A10005B0AE6F8E12DEDEB8E005C0BE6F88971D0
:101A20001A57E31C065D09E6F8E1B5DF76045E0BA4
:101A3000E6F8F13089B29C2F005F08E6F8F9B7416B
:101A4000016008E6F8E1763E01610DE6F8B9CDD116
:101A50009064D190C300620FE6F889693A445992C4
:101A6000255932E404630BE6F8B94D599266D14E1C
:101A70006410E6F859D26848B2244BB268C86100D5
:101A8000650BE6F8B94D593244F14E660BE6F8C9DC
:101A90005A541CD33A09670EE6F8B94D59922559A4
:101AA00034A4D1046810E6F889693A44599225595A
:101AB00092E53000690AE6F8C939A636EE046A0BE9
:101AC000E6F859724CED5493006B0EE6F889692DD7
:101AD00089A22DAAE530006C09E6F8A96A8F3B01BE
:101AE0006D0BE6F8392951D2FF0E036E0EE6F83978
:101AF00025929464499664390C6F0CE6F8B94D59F7
:101B0000922559B413700FE6F8390D519664499631
:101B10000C519A02710EE6F8B90D49966449160DFA
:101B20006905720CE6F839259294A4751A00730BB6
:101B3000E6F8B90D493C27434E740CE6F8C96936FE
:101B40006869598701750EE6F839654996644964F4
:101B5000C96100760EE6F839654996645112E614BB
:101B600000770CE6F839654996F429C909780DE63D
:101B7000F83965511256A22C8701790DE6F83965BE
:101B80004996645112B6027A0BE6F8390D62E3A069
:101B9000C3007B0CE6F829615A8CD3728E007C0955
:101BA000E6F8F1B4BF43007D0BE6F8E16A394C8BEF
:101BB00039067E0AE6F8B94549A79C1500000004DD
:101BC000FFFF00005F020503050601040619280057
:101BD000F81EF81FF805C10CBC12CA200B190DF92C
:101BE000C7FFFFFF1F022118190DF90732B568AFB3
:101BF000B23A76FFEF6384A84D8FD2C797012224B3
:101C0000190DF9072146DC947153C64D193765DC6F
:101C1000947153C64D193765DC947153E6E3FFFFA9
:101C2000CB00234D190DF94775CAB829E3A68C13CB
:101C3000234FCAB829E3A64C3A70C0CA8103A6A6AE
:101C40008C9B324E8C3C29E3A68C9B326ECAB82901
:101C5000930E1CB072E0802931F2C4C893326ECA70
:101C6000B829E3A68C9B326ECAB829F2F1930024FE
:101C700051190DF9873276558307A81D38456244FE
:101C8000A5194324D1981269C83C1AF3680C243171
:101C9000B0C2C403210F883C20F280C009F666D090
:101CA0001B426E08B929E386108A3284CE901974DB
:101CB0006A8C2874E080AC03F50E041DBB3E9E01C7
:101CC0002551190DF94792D49C3B730E48993383E3
:101CD000CA9C210B0D5968C88C4924688C3A206233
:101CE000D88D6944A68E9D3A76EAD8A943C8CD30EE
:101CF00036E3402C192428CD183268C84243D699BF
:101D00003264CE942163E6509833C8CE28FAF82680
:101D100000264D190DF947D5E4818007C611A1367B
:101D200066DA986963A68D994665DC107224084EC0
:101D30002069B2E6450AF4688C894384CA3234A625
:101D4000D0213185D099497628D5A15487D09D22BC
:101D500015061D2841E8C0905185E2E39300270F46
:101D6000190DF9072376FF7DFCFF7F1D00282A1936
:101D70000DF9872596A6C99A8DB23A95EA54AA63B9
:101D8000A77275ECB254393B962AD9B154C9B25AEC
:101D9000956CD556E986012924190DB98F4BB5AA42
:101DA000D5AA64B94A962AD9B154C9EE5F65752A95
:101DB000D5A944A912E566A35465022A2F190DF985
:101DC000C787A9323B569E18758808217342C4A163
:101DD00003E70EC4246A72C4C41103878C1B338CBE
:101DE0000C2942C322C9C77F16002B1A190DF9C747
:101DF000F363F773070E943970A0CC8103E5C6EE48
:101E0000EFE3BF0D2C17190DF9C7FFFF37A6D63426
:101E1000DAECB262A78E9D3A371E002D16190DF925
:101E2000C7FF0B070E0C3A7060D08103F3F1FF4F30
:101E3000002E10190DF9C7FFFF3788DA74943EBEE3
:101E40000C2F2E190DF9071677EC54AA53A94EA59D
:101E50003A95EAD8A963A7529D4A752AD5A954C7CD
:101E60004E1D3B95EA54AA53A94EA51B1FCF013026
:101E70004E190DF947B7E4017907A8152136671601
:101E8000A1499426112A34A9D0203B7426902133ED
:101E900082CC1C196416193365992163C690983356
:101EA00086C41816E6D03144A7D2A04A832831341C
:101EB0008B0CAD22D40ED03B20B23E3E0C31171914
:101EC0000DF9477868C983070492181865ECFEFF7E
:101ED0007F1F5F06322F190DF947D6E28171076C1B
:101EE00091A944889428AACC4E65752A51466B1254
:101EF000E5AB5389529D7AE0C0A00307061D383038
:101F00001F9F043332190DF947D5E28171078C8D7B
:101F1000A11688ECAE12A559F040C403110F482D4C
:101F20004B762C55B253990AB510292AB50E5C3B55
:101F300030D13EBE0C3438190DF9477C2AA3356DDB
:101F40004A183961E288893206CE9837649E9471C6
:101F500053A68D992667D89C5983660D1A75E04063
:101F6000990307CA1C385072EC7E1F5F0535331980
:101F70000DF947F2C08150070E843A7020D4D87D05
:101F8000A2DE0163076E153135885628AA64F7A9C9
:101F90005094441162A94CA903D70E4CB48F0F037F
:101FA0003643190DF947D8E28171076C55994528D8
:101FB000D854AA63A7B2516DC40159130E903A5276
:101FC000A90E2586480D9A3568D6205283484D1AA9
:101FD0003569D42442A4C8D02A52EC40B90313ED89
:101FE000E3BB00372D190DF947F1C00149070E4831
:101FF0003A7040EA54AA63A7529D4A75EC54AA630A
:10200000A7529DCAEA5456A7B23A95D5F9F83A00B4
:102010003846190DF947D6E28171078A15A9358826
:1020200012214A93288D9A448812A1596488D52098
:102030007760E0450AE5A6109B436A12A5518348E4
:10204000D1193667D81C5274481162A94CA903D71C
:102050000E4CB48F0F033941190DF947D6E40171C5
:1020600007AA11A94567D6204A9426515A8AD02832
:1020700042A40651A234899D52444E1DA030EB80EB
:10208000887134A8B23A762AD5618168512176A048
:10209000DC8189F6F165003A15190DF9C7BF4FD4F7
:1020A000A6A3F4F17789DA74943EBE0C3B1C190D9B
:1020B000F9C7BF4FD4A6A3F4F17789DA7495D5B1E7
:1020C00053C78A1D2B1F10003C1E190DF9C7D9B02C
:1020D000436B5AF4276B52255BD5D5AAAE5675953E
:1020E000ECE0F8F82B003D21190DF9C75F3F70A017
:1020F000CC8103650E1CA88FA70F1C2873E04099A4
:102100000307EAE3FF05003E1D190DF9C771B95435
:10211000FDD1A3568BD62C69D1C992169DB44955D1
:102120003EFE45003F27190DF98761F1C0B803C590
:102130008A9422446912A95863B7CA28AF4E6575BC
:10214000ECFA589F5AB4D5F9F832004051190DF9FC
:1021500047D7E28171076C91A9446910AD39C3C6B4
:102160000C3A1066CC8131620E50995264CA10321A
:102170005386CC993264CE942173A60C99336508AA
:10218000152A436A549972A0CC940B63E60C233B46
:1021900096D93AC20E583B50D03E3E0B4144190DE1
:1021A000F9071F38DDB16389B63961E484911326DC
:1021B000CE183863E00C7253C64D193766D89C614F
:1021C00073681D3875E040A80307244D22446AD087
:1021D0002C3AC3C64CA3328DCAB821F3E8E383007E
:1021E0004251190DF947F080B10307421D382069AB
:1021F00052A1518466D1994567D89C597466D1190A
:10220000456812A50307421DB875E080A44985669C
:10221000D119366718996164A68D194666189961B7
:102220006466D11955E7C08141070E843A601FDF0B
:1022300005432E190DF947D7E28169074E59A94484
:10224000882932C4E4509DCAAB6397A5CAD9B1545A
:10225000C9D292C490955207AE1D98681FDF0544FD
:102260004D190DF947F000B903B70E1C0835A8D277
:10227000244AA308CDA2338BCEB039C3E60C233356
:102280008CCC3032D3C64C1B336DCC3032C3C80C2F
:1022900023336CCEB039B3E8CC1A348AD0244A73D5
:1022A0002C1D3810EA80B103F4F16500452E190D9C
:1022B000F947F0C0013A070ED0397080CED8FDD969
:1022C0000307421D3810EAC0815063F79F3D7080BC
:1022D000CE8103740E1CA08F4F024621190DF947C1
:1022E000F1C08141070E0C3A7060D0D8FDD903B718
:1022F0000EDC3A706BECFEDFC72F004742190DF978
:1023000047F7E00162074E95A9C40EA939C40251EE
:102310001D3B95D5B10B1D9032E880143A07A450AF
:102320009B426D0AB531D3C6101B436C0EAD419470
:102330000859B174E040B00304EFE3B300484E190C
:102340000DF94790D69C617386CD193667D89C618C
:102350007386CD193667D89C617386CD1936E7C070
:10236000013A070ED0397080CEB039C3E60C9B33EA
:102370006CCEB039C3E60C9B336CCEB039C3E60CDF
:102380009B336CCEB039C3E6E39300491F190DF9B6
:1023900047F2C0AD03B70E1C1CBBFFFF0F1E381069
:1023A000EAC08150070EC4C747014A22190DF947F8
:1023B000F580B103C60E981CBBFF7F95B140B4E415
:1023C000102352EC40B90313EDE3DB004B4B190D26
:1023D000F9478F1699597446119A446910A939B46E
:1023E000E60C1B436C0AB521E466D01B417002C5A4
:1023F00003020FCCAB408F06B929D4A6501B436C07
:102400000EAD41A406919A446914A1518466D11974
:102410004666587D7C11004C1A190DF94790EAD890
:10242000FDFFFFD90307E81C3840E7C001FAF82494
:10243000004D5C190DF9476FDA1862636891294500
:10244000A6141943650C959930C6CC843112C64C3C
:10245000983261CC882122C68C983162CC8C1132A2
:10246000C6CC983063CC90226386141933659929C1
:10247000CB8C09B3DA986963A68D993666DA9869C8
:1024800063A68D993666DA9869F3F149004E5919B9
:102490000DF9479016195A734ACD2935C7D21C4BEE
:1024A00073260C9A3361D09C117396203367C698BB
:1024B0003933A8CC193265CE102273A60C99338516
:1024C000C69C3133E68C21316789398326CC193497
:1024D00061CE243B93EC8CAA33AACE2C3AB3E80C01
:1024E0009B336C3E3E094F46190DF947D6E2817188
:1024F000076C55A94488123BB4E60C23338C0AB50B
:1025000029D4A6509B326ECAB829E3A68C9B426D93
:102510000AB529D4A6501B338C0C2D32B406516257
:102520008754955A07CC1D10591F1F065036190D98
:10253000F947F080B10307421D38206952A1597450
:1025400066D1193667D89C617386CD994567169D0B
:1025500049850E1C9074E040A803C6C6EEFF3E7E7F
:1025600002005150190DF947B7E28171076C55A966
:102570005487123BB4E6D022338CCCB429D4A65075
:102580009B326ECAB829E3A68C9B426D0AB529D44A
:10259000A6501B338CCC3032B4E88C2244891D52B7
:1025A000366C1D30774064D5B163C91E907820E445
:1025B0007500524F190DF947F080B10307421D38DD
:1025C000206952A1518466D1994567D89C61736690
:1025D000D199456714A149850E1C9074E040A80369
:1025E000C6C64C9B336CCEB039B406CD1A446AD201
:1025F000A8499446111A4568169D597486D1C71783
:10260000015338190DF947D7E0016A074E95A9B46F
:1026100012294963C752254BB6AAD103310F04B51D
:102620005A9655B2EB44A3238CCE283A662A1D381D
:1026300020EB40BD03F1F15D005419190DF947EF8E
:10264000C0012B070E583970C0DAD8FDFFFFFBF828
:1026500034005549190DF94790D8986963A68D99AA
:102660003666DA986963A68D993666DA986963A644
:102670008D993666DA986963A68D993666DA986917
:1026800063A68D99366618195A6468D1A1448812D8
:10269000A52AB50E583B40F03EBE0B5643190DF926
:1026A000476FDC947153A88D193667D81C5A83463E
:1026B0004D1A3589D2A841B306CDA2336CCCB431C2
:1026C000D3A88C1B326FC83C1A03474C1C3172C212
:1026D000C809328D16A54A76AC5CF9F83400576407
:1026E000190DF9476EE08C8143E6C41932278E94A8
:1026F0003163A48C192365CC9465A68C195264CCE3
:102700009022638614913363C20C393326CC903304
:1027100043C44223442C3461C6844113844C903416
:1027200041C8044913844C9064A5529952644A915B
:10273000A14567D6A05983660D1A26495828F9F88D
:1027400028005844190DF94770D81C5293464D2261
:10275000346BD02C32D388901B328F04C111130FED
:1027600084B469942AD59A260F441C319004BD2163
:10277000E388501B438B0CAD419408511A4587D612
:102780009C61F4F14500592E190DF9478FDA186252
:1027900063680D2235881243A3E8D022338C0A35B2
:1027A00022E368D0233190C4C493378B561DBBFFFE
:1027B0007D7C19005A32190DF947F0C0013A070E15
:1027C000D0397080EA54AAAB529D4A7555AA53A9D4
:1027D000AE4A752AD555A92E3BF5C08132070E9415
:1027E0003970A03EBE085B1B190DF93F70EBC0AD00
:1027F00003B7C6EEFFFFFFD903B70EDC3A701F49DF
:10280000005C2B190DB98F3B762CD9B164C7921D92
:102810004B76DDB163C98E253B96EC58B2EB8E1D2D
:102820004B762CD9B164C7928D8F17005D1A190DA4
:10283000793F70EBC0AD0367F7FFFFFFAD03B70E45
:10284000DC3A701F51005E21190DF94758EE54AA69
:10285000356D5E1C319004BD21E3C64C1B336CD03A
:10286000B048F2F1FF3F095F16190DF9C7FFFF7F6E
:10287000F5C0012B070E583970C03EA600601A192A
:102880000DF9C75C60B972C78EA55A956A55B2EB4F
:102890002A1C1FFFFF14006138190DF9C7DF3A78B1
:1028A00080D8815B646A851A4B95EC6A076A1DB80B
:1028B00074E080A04A8366CD214567161D4A7508DD
:1028C000192273E88085490766CCB2321F9F0462E3
:1028D00041190D39A73A767FC4D88803B2261CA8BF
:1028E00034414AA5424CD1214587149D617386CD60
:1028F000193667D89C617386CDA13587141D528324
:102900000A11B25269C20152230EC892521F1F0609
:10291000632A190DF9C71F3B7880DA015B552A51EC
:102920001A442BD25456C72E4B9559AA6429C9AACA
:1029300052EB80B50304EFE3B3006443190DF9874C
:102940004575EC7EADC8AC0322461DA030A98A2196
:10295000428528119A3587D61C5A7386CD19366759
:10296000D81C5A7368CDA1356814214A84EA54AA48
:1029700062EA00855907444C2B421F9F04653319B6
:102980000DF9C71F337880DA015B554A4D5A8AD05A
:10299000AC39B4E61C3840E7C08132070ED0194B81
:1029A00095D9B12C892A53EAC0B50304EFE3B300EB
:1029B0006626190DF98763F1C0B803C5AA902224D1
:1029C0008B52ACB1BB78E040A80307421D38106FB2
:1029D000ECFEFF3E3E0E674C190DF9C79F2A33E906
:1029E000808842070ECC29526BCE2C42A3088D9AC8
:1029F000348AD02842B3C8D02A42ED00BD03F22663
:102A00005014BBEC016B076E1D381069149D616397
:102A1000A68D99368616994A840E1C9874E0DC01BE
:102A20004900683F190D79A73A767FA5D88C03A293
:102A3000461C1835610A253B840AB1448812A15905
:102A400083660D9A3568D6A05983660D9A3568D687
:102A5000A05983660D9A3568D6A0598366CDC727DD
:102A6000016920190DF98732B568ABF3B17B40E0FD
:102A7000018107C4EEFF0F1EB875E0D681FBF82870
:102A8000006A25190DF90734B568ABF3B17A80DC1B
:102A9000017207C8EEFFFF2AB140C4E2102352ECD6
:102AA00040B90313AD016B3D190DF9A03A76FF143F
:102AB000A1499406919A436B0CB129D486909B410D
:102AC0006F04C109050FCCB340AE443522C5C61012
:102AD0009B436B10A9419526511A4568169D59F5DF
:102AE000F145006C1D190D793F20F080C00362F79D
:102AF000FFFF0F1E3820E9C00149070EC8C7370184
:102B00006D52190DF9C71F994184CE841357263C85
:102B100010A586092A448AB04284952944C64C21CE
:102B200032660A913153888C994264CC142263A690
:102B300010193385C8982944C64C2132660A913150
:102B400053888C994264CC142263A6101933853EB5
:102B50003E086E3E190DF9C79F99526CC60151236C
:102B60000E8C9A3085921D428558224489D0AC4102
:102B7000B306CD1A346BD0AC41B306CD1A346BD04A
:102B8000AC41B306CD1A346BD0AC41B3E6E393004D
:102B90006F38190DF9C7DFB27860DC8162544A11D1
:102BA0006289D02C32B4C8101B336DCCB431D3C67B
:102BB000101B436C0C2D3AB3E8909A44881495622C
:102BC00007CA1D98681F1F067041190DF9C75F19C4
:102BD000626CC48151130E549A20A55221A6E8902C
:102BE000A2438ACEB039C3E60C9B336CCEB039C356
:102BF000E6D09A438A0EA941850859A934E100A973
:102C00001107640DA93676BF09713F190DF9C79FE9
:102C1000B231EB80885107284CAA62A84E214A8421
:102C200066CDA13587D69C617386CD193687D61CB3
:102C30005A73680D9A3588123B95AA983A4061D626
:102C40000111D38A8CDD5F017220190DF9C7DF995C
:102C5000626BC68149230E149A4065D21D49368B9A
:102C6000526575ECFEF7F1037334190DF9C7DFB245
:102C70007880D8815B642A11A2344A1455B2550F6A
:102C8000843C30F24050B36427059B146CD028423A
:102C9000752A1D3810EB40C1FBF830007425190D62
:102CA000F9C72055AE8E9D78E040A80307421D3835
:102CB000106FECFE9FA55A64DC01720726DAC75735
:102CC00001753D190DF9C75F993568D6A05983661E
:102CD0000D9A3568D6A05983660D9A3568D6A059E5
:102CE00083660D9A3568D62052832811A2C44EA55A
:102CF0002AA60E50987540C4B422F4F149007636E5
:102D0000190DF9C71F213667D81C5A83660D1A356D
:102D100089D2A849A3E8CCA2336CCC342AE3A68C90
:102D2000A3318FC6C01113298C9C30D2A651AA544E
:102D3000E7E3D3007752190DF9C71F993764DE9086
:102D4000318B8C5964CC183153A888195245CC90DA
:102D500022638648103266888419738448983167E4
:102D6000C408198246C8182168848C118246C89804
:102D7000304982140993AA58AA52AA4A293AA4E8C7
:102D8000D09A431FDF047835190DF9C75F213569E3
:102D90001243B3C84C9B428DC83C12132750BC69E8
:102DA000942A519307228E1848821C116A638691D7
:102DB000214588D2283AA4E8E393007941190DF916
:102DC000C75FA14586D6A05983660DA2346AD22872
:102DD00042B3E60C9B338CCCB429E3A68CA33170B0
:102DE000C6401213278C9C30F266D1AA54C74E1DE0
:102DF0003B959C107A07041E086910007A2B190D68
:102E0000F9C79F397040D28103920E1C104A752A6F
:102E10005156A712E52A51AE12257AE040990307D0
:102E2000CA1C38501F5F047B28190DF947F940C0B0
:102E300003F20E8C234A95EAD8FD2A519236A99ABC
:102E40006576FF2C5566A91EA07760E28128007C7C
:102E50000F190DF9073276FFFFFFFFEF83017D2782
:102E6000190DF947F2018107A69225BB3F4B762C3D
:102E7000D9A3252F529DCAEAD8FD55A2E50ECC3B19
:102E800020F04030007E1E190DF9C75FA27928D0CE
:102E900001316368D4A042E5C01C390762D2C7FF84
:102EA0007F180000000004FFFF0000CF02040304AD
:102EB00004010305090F00FD0AFD0BFF0221047D3B
:102EC0000E182007F9931FFF00210CF9933B30DF08
:102ED000C306C6A300220EF9931F2C242A242A24F9
:102EE0001E9F002316F9931F3C242A24C828242A55
:102EF00024C828242A241E25002415F9931F2EAC4B
:102F0000262467117173116121B9298B8703251E4E
:102F1000F9931F2A2824222426222428242E302E06
:102F20002428242226242224281E1C00261AF99351
:102F30001F4A2C242A242A244C4E2624454CA29095
:102F4000882099786800270AF9931F2E303D3E02A9
:102F5000280FF9933D2E302E302F0323E3C1002993
:102F60000FF9933932303230EF02E3E201012A13D4
:102F7000F9931F2E2A244D44AAA9883421A9E2B12D
:102F8000062B0DF9931F6960AAABC0F448012C0B06
:102F9000F9931F1FC909A60B022D09F9931F47F7C3
:102FA00038022E09F9931F1FC9C9232F10F9931F47
:102FB000342E302E615CC2B87844003017F9931F6C
:102FC0006C2A2655485448544854485448544CAAEE
:102FD00079043110F9931F2E4E2C222A2430AFEEA3
:102FE000A101320FF9931FAA262A242A2E1FDE439D
:102FF000033311F9931FE8302EDD646092A8987AAC
:1030000070003414F9931F324E2C222A24282651A2
:10301000CC5D607A70003512F9931FE82430058D7D
:103020005060265131F5E0003616F9931F8C282E9A
:1030300030058D504854485448544C3D38003712A0
:10304000F9931FE8302E302E302E302E301E09001E
:103050003814F9931F6C2A26554CAAA9985421516B
:1030600031A9E6113915F9931FAA262A242A242A00
:1030700024488622305D103D023A0CF9931F233913
:10308000794472F2083B0EF9931F23397944728216
:10309000E982003C0CF9931F322E8791B907073D56
:1030A0000BF9931FD37BA87B2C003E0CF9931F2AAE
:1030B000328771B947033F12F9931FAA262A242A9F
:1030C000302EC37890781400401BF9931FAA262A4B
:1030D000242A24842422262422442444222430B274
:1030E0001E1C004118F9931F2E45544CAA90A8901D
:1030F000A89093A890A890A87868004216F9931F0A
:10310000A8284D5448504C519AA890A890A0987A5D
:1031100004430FF9931FAA262A24305FC5D48303E2
:103120004418F9931FA8284D54485448544854480B
:1031300054485448504C3D02450FF9931FE8243041
:1031400061516086F7D000460EF9931FE824306184
:103150005160EE11014715F9931FAA262A24309BCE
:1031600091A890A890A8987A7000481BF9931F28FE
:103170002A242A242A242AE4242A242A242A242A1F
:10318000242A1E1A00490CF9931FAA2C303FAB07C2
:10319000074A0DF9931FAE2C30DF0405D1234B19DC
:1031A000F9931F282A2428265148D45844584854B3
:1031B0004C509AA87868004C0BF9931F28307F7800
:1031C0000F0D4D19F9931F282A242A4446242293CF
:1031D000884CF2AB90A890A87868004E1CF9931F19
:1031E000282A242A44282422262437112141225126
:1031F00021512151F1D0004F1AF9931FAA262A24F8
:103200002A242A242A242A242A242A242AA61E1CE0
:10321000005012F9931FC8262A242A242AC42630D3
:10322000F78800511BF9931FAA262A242A242A244E
:103230002A242A242A242226249BBA4851005219DF
:10324000F9931FC8262A242A242AC426242A262899
:103250004D5448543C34005316F9931FAA262A248F
:103260002A24725232242A242AA61E1C00540CF945
:10327000931FE82A307F8F0200551BF9931F282ADD
:10328000242A242A242A242A242A242A242A242ACE
:10329000A61E1C00561AF9931F282A242A242A261F
:1032A000514C504C5444584458445C3C0A00571408
:1032B000F9931F282A242A242A242A24FF2FB249DA
:1032C0000F0E5818F9931F282A242A2655445C60AB
:1032D0005C44544CAA90A87868005911F9931F28AF
:1032E0002A242A2655445C60DEA3005A0DF9931F58
:1032F000E8302E1F06DE43035B0CF993992A30FF5A
:10330000901E0A005C10F9931F283230326164C2AB
:10331000C87868005D0BF9939730FF153D18005E83
:103320000DF9931F2E45544CAA78BC035F0AF993FC
:103330001FBF398807026009F99339323D3E0661A3
:1033400012F9931F93CAC01893A89020198A78681D
:10335000006217F9931F28300B1AA190A890A8902B
:10336000A810A190087A7000630FF9931F939AA890
:1033700090C0AC62EAC1016418F9931F34300D4566
:10338000489048544854485448900C453C34006593
:1033900011F9931F939AA890A89093C0C87A7000CF
:1033A0006612F9931F6E2A2628262830AC2C307B13
:1033B00024006717F9931F138A90A098A098A02063
:1033C000A2C89AA890A89812006817F9931F2830ED
:1033D0000B1AA190A890A890A890A890A87868002F
:1033E000690DF9931F4C1E7230CFEAC1016A12F9C0
:1033F000931F501E72306F82628262828268006BFD
:1034000016F9931F2830AB9018990829B908A91804
:1034100099A87868006C0BF9931F6A307F560F0EDD
:103420006D0FF9931F8B099990FCFF2A1E1A006EED
:1034300016F9931F8B081AA190A890A890A890A89D
:1034400090A87868006F14F9931F939AA890A89099
:10345000A890A890A8987A70007017F9931F8B080D
:103460001AA190A890A890A810A190089AC07400E2
:103470007116F9931F138A902091A890A890A89094
:1034800020198AC02C00720FF9931F8B9021994448
:103490003181D9A3017311F9931F939AA890C8CAD7
:1034A00090A8987A7000740FF9931F3E30CC2A30A0
:1034B0003751F3E0007516F9931F8BA098A098A0E0
:1034C00098A098A098A0208A7868007614F9931F95
:1034D0008BA890A89844315111611171F12800779F
:1034E00010F9931F8BA890A890FC17D9A407077810
:1034F00012F9931F8BA89854117129A26252C543E7
:10350000037919F9931F8BA098A098A098A098A070
:103510009818A189C098A0201A007A0BF9931F8BE4
:10352000BBBCBB87067B11F9937D2A3065989C64F0
:103530005C60CA7920007C0AF9933B30FF7B38003D
:103540007D11F9937532305DA49C586460AA79406E
:10355000007E0DF9931F4A262437F2F80400A007D5
:10356000F9931FFF00A10CF9933B301E3630DFA307
:1035700000A216F9931F6D145148444C4854445806
:10358000444810553C1A00A315F9931F6E2A2628AB
:1035900030AC2C304E2C2226C53C3800A412F993B6
:1035A0001F3A2AA628262826A8262A1E5300A51434
:1035B000F9931F282A242A26554454595859607AC9
:1035C0001400A60DF9931F2E30F72081B98703A7A9
:1035D00018F9931F4C2C242A522C242A242A244CD8
:1035E000322A244C1E0E00A80BF993372628261EDB
:1035F000BF02A919F9931F8A284988484492888CE8
:1036000022924424114914448F1200AA10F9931FE6
:103610004A2C246C2A248CBA1E6300AB18F9931F21
:1036200045485048504850485448584858485848C9
:103630003C3A00AC0AF9931F53C3EC3101AD09F9D0
:10364000931F57F5B802AE1AF9931F8A2849C44848
:103650004492881423119944248908090AA247092D
:10366000AF09F9931FC81EBF02B00EF9931F4E2C6D
:10367000242A244C1E2F01B10EF9931F2E30D5554C
:1036800060F27B7400B20FF9931F4A2C24304C2C4B
:10369000901E7700B310F9931F4A2C242E322A244F
:1036A0004C1E8700B409F9933D2E3D3E07B519F92C
:1036B000931F8BA890A890A890A890A81019918803
:1036C0008990C0780800B61EF9931FCA24262224C8
:1036D000262224262286222C222C222C222C222C2A
:1036E000221E1A00B70AF9931F6B39799C01B80B97
:1036F000F9931FBF930A091302B90CF9931F2A4EBD
:1037000030BB791C02BA0FF9931F6A2A2628266A51
:10371000BC1E6700BB18F9931F3A242C242C242CC0
:10372000242A242824282428241E2900BC15F9939F
:103730001F2A4E30A39011B188A890288938796843
:1037400000BD12F9931F2A4E30131992C030B140B8
:103750007A6800BE18F9931F4A2C242E322A248D31
:10376000885844544894449C3C3400BF12F9931F39
:103770002E1E24302EC3A890A8987A7000C017F986
:103780009325323DC4544CAA90A89093A890A89039
:10379000A8786800C117F9932D2E3DC4544CAA9007
:1037A000A89093A890A890A8786800C219F99329C6
:1037B0002E222A267C2A26554854C8495448544863
:1037C000543C3400C318F993572624647C2A2655A8
:1037D0004854C84954485448543C3400C418F993D8
:1037E000372628267C2A26554854C8495448544828
:1037F000543C3400C519F993792A266A2C222A26CA
:10380000554854C84954485448543C3400C61AF9E1
:10381000931F4A6224554854485448944D4854488C
:10382000544854083D3400C712F9931FAA262A248D
:10383000305FC5944985840901C810F9932532F990
:103840004D60205560BA7B6800C910F9932D2EF9A0
:103850004D60205560BA7B6800CA13F993292E2267
:103860002A26F82630902A30DD3D3400CB12F99319
:1038700037262826F82630902A30DD3D3400CC0D3E
:10388000F99325327D59609ED58303CD0DF9932D93
:103890002E7D59609ED58303CE10F993292E222ABE
:1038A00026BA2C30CFEAC101CF0FF993372628264C
:1038B000BA2C30CFEAC101D018F9931FA8284D5473
:1038C0004854C45048544854485448504C3D02D180
:1038D00019F99357262464382A442824222624BF21
:1038E00089080912898A8706D217F99325327D4DF6
:1038F00054485448544854485448544C3D3800D3D4
:1039000017F9932D2E7D4D5448544854485448542B
:1039100048544C3D3800D41AF993292E222A26BA4D
:10392000262A242A242A242A242A242AA61E1C00E1
:10393000D519F99357262464BA262A242A242A243E
:103940002A242A242AA61E1C00D619F993372628D1
:1039500026BA262A242A242A242A242A242AA61EED
:103960001C00D712F9931F5D544CAA88B81451312A
:10397000A9E2D101D81CF9931F22A62648242622A9
:1039800024262224BF8809898809118AA989070564
:10399000D918F99325327954485448544854485416
:1039A000485448544C3D3800DA18F9932D2E795478
:1039B0004854485448544854485448544C3D38009E
:1039C000DB1BF993292E222A26382A242A242A248A
:1039D0002A242A242A242AA61E1C00DC1AF993373A
:1039E000262826382A242A242A242A242A242A2457
:1039F0002AA61E1C00DD12F9932D2E795448544C32
:103A0000AA88B8C0EC5100DE14F9931F2830D026E4
:103A10002A242A242AC426303D2200DF1AF9931FC3
:103A20006C2A262826282448222C242A26282628C0
:103A30002628421E01E013F99339327965608C49DA
:103A40005448900C453C3400E113F9933F2E7D65BA
:103A5000608C495448900C453C3400E216F9933B85
:103A60002E222A26BA3230C6242A244886221E1A3A
:103A700000E316F9931F4C242644BA3230C6242A98
:103A8000244886221E1A00E416F9931F2A262826A7
:103A9000BA3230C6242A244886221E1A00E515F9B7
:103AA000935B2C244CBC3230C6242A244886221E28
:103AB0001A00E615F9931F13099990542131352105
:103AC00051216924E6A101E712F9931F939AA89066
:103AD000C0AC62CAA442C28400E812F99337327DB6
:103AE0004D544854C84960643D3800E912F9933F89
:103AF0002E7D4D544854C84960643D3800EA15F99C
:103B0000933B2E222A26BA262A242AE42430B21EE7
:103B10001C00EB15F9931F2A262826BA262A242AE8
:103B2000E42430B21E1C00EC0CF9933732FD609E89
:103B3000D58303ED0DF9933D2E3DC4609ED58303DF
:103B4000EE0FF993392E222A267C30CFEAC101EFFD
:103B50000FF9931F2A242A247C30CFEAC101F019DF
:103B6000F99337244C2C2232AA262A242A242A24E8
:103B70002A242AA61E1C00F11AF9931F4A2624643F
:103B800038824628242A242A242A242A242A1E1A4F
:103B900000F215F99337327D4D5448544854485437
:103BA00048544C3D3800F315F9933F2E7D4D544851
:103BB000544854485448544C3D3800F418F9933B49
:103BC0002E222A26BA262A242A242A242A242AA66D
:103BD0001E1C00F518F9931F4A262464BA262A24CD
:103BE0002A242A242A242AA61E1C00F618F9931F28
:103BF0002A262826BA262A242A242A242A242AA63F
:103C00001E1C00F70FF9931F45DC5CF879DC5C3C67
:103C10000A00F817F9931F754C4D8A909888905CAC
:103C2000C48444C4C4D4C48302F917F993373279E5
:103C3000504C504C504C504C504C5010453C340063
:103C4000FA17F9933F2E79504C504C504C504C5031
:103C50004C5010453C3400FB1AF9933B2E222A2687
:103C600038282628262826282628262888221E1A8C
:103C700000FC1AF9931F2A242A243A2826282628E9
:103C800026282628262888221E1A00FD1AF9933D88
:103C90002E7D504C504C504C504C504C8CD044606D
:103CA0004C50100D00FE16F9931F3A300B1AA190DC
:103CB000A890A810A190089AC07400FF1DF9931F46
:103CC0002A242A243A282628262826282628264652
:103CD0006822302628880600000000082595076B1A
:103CE000FFFF20A015F9931F682A300D454C504C5A
:103CF000945960203D340020A11BF9933FA826452C
:103D0000484C5048544854445844989C50884D3C22
:103D1000280020A217F9931FAA262A24300949AAAD
:103D200090A890A89034F5E00020A317F9931FE81D
:103D300026301D854C84544458445844143D0A0090
:103D400020A416F9931F6E2A2628AC2CAC2C4E2CDE
:103D50002226C53C380020A518F9931F79C4921477
:103D600022211221B9100991084915110F0B20A623
:103D70001DF9931F282A242A4428E2402224C581C1
:103D800044904854485448543C340020A713F993B5
:103D90001FC8262AE240222AC42630F7880020A81D
:103DA0001CF9931F882A26E62611C58448504488AA
:103DB000489A889890889879680020A91AF9931FE2
:103DC000282A242A242AE2402224C5814448BEC845
:103DD000263D380020AA1FF9931F6A2A2622242292
:103DE00093884C223289C8242293884C2262424212
:103DF000E6C10120AB16F9931F34C6308622244851
:103E0000242A244886BC1E1C0020AC13F9931FC52D
:103E1000544CBAAAB8AAC898A879700020AD1AF96B
:103E2000931F282A2428265148D04D445848544CE2
:103E3000509AA878680020AE12F9931FE82A3050F3
:103E40004C30504C303D0A0020AF1DF9931F2C8E92
:103E50002822242A262826282628264626244224C4
:103E600026441E1C0020B01EF9931F4E2C242A2429
:103E70002A242A242C2228242822518444489AC007
:103E8000B8580020B116F9931FA828C9414850C856
:103E90004148504C51607A4400210313F993352E68
:103EA00022622622262830DF44CD8303210912F91D
:103EB00093352E222ED22630B028307B3400212696
:103EC00018F9931F7E2A2655485448544CAA88B0A6
:103ED00088A08979680021900EF9931F695CBA9BCC
:103EE000C8F44801219111F9931F2E6E2A224D48E2
:103EF000AAC0BC470121920DF9931F69649ABBECDB
:103F00009102219311F9931F2E30AF42D244A49A0B
:103F10008B4701219411F9931F9B88A898989B5473
:103F200011F1D800219517F9931F2E6E2A224D48C2
:103F3000AAC0A8903411A9E6E25100219610F99385
:103F40001F1D955C44584864F6E800219711F993C9
:103F50001F299D58445448505C7AD400219810F988
:103F6000931F5D642661117152F4E800219911F9E3
:103F7000931F755CA290A88830397AA400219A1406
:103F8000F9931F655C4CA290839098A890B078B488
:103F900000219B14F9931F695848544CC84148505C
:103FA0004CBA78A400219C11F9931F655CA2108A79
:103FB00024C922E3D102219D12F9931F6964509212
:103FC0008808A290B8F44801219E16F9931F65480D
:103FD00050485048D04148B290B090788400219F1A
:103FE00016F9931F2E6E2A224D48A2A9883421A9C2
:103FF00002D3A30021A017F9931F5D4858485848E1
:10400000C8415048504850483C520021A116F993ED
:104010001F2E3055489A88544321692252CDC5A39A
:104020000021A212F9931F695C4C36553151315170
:10403000F1480121A311F9931F69544C544C544D7C
:10404000EEE2910221A412F9931F695C4CA2909BAD
:10405000A03451F1480121A512F9931F2E6E2A2296
:104060004D48AAC09CD5830321A612F9931F695419
:104070004C509A93A09874F1480121A712F9931F0C
:10408000AA2C305721692252CDC5A30021A816F9C8
:10409000931F2E6E2A224D48AA24692252CD45DD57
:1040A000430321A910F9931F655C4CAA889BC8F4AF
:1040B000680121AA0FF9931F69544CAA98BBEC918F
:1040C0000221AB12F9931F655C4C161137A942C24D
:1040D000E2D10221AC13F9931F69544C8A98989B42
:1040E000442171F1480121AD11F9931F93982429BE
:1040F0005844C5A4C7040021AE12F9931F93982415
:10410000290E2442D2A4C7040021AF16F9931F2E12
:10411000614850C490485C6054441C593C0A0021DA
:10412000B011F9931F2C2ECE28262A2430EFC1017E
:1041300021B111F9931F3032E62428265160EE1187
:104140000121B212F9931F3230572141313146918A
:10415000F1480021B30EF9931F28306F82D2DCA5FD
:104160004721B40EF9931F5D61CE2252CDC52321A4
:10417000B511F9931F5160A29844213791F168015C
:1041800021B613F9931FC5544CAA90288934117392
:10419000F1980121B714F9931F7C2A2655485448F9
:1041A0004C44AAB9784C0021B813F9931FE8267043
:1041B0004C2E22323032613C340021B919F9931F60
:1041C0003A242A22EC24222C245944C85944544825
:1041D0003C340021BA16F9931FA1484CCC444C44FE
:1041E000845448544CAA79A40021BB15F9931F614B
:1041F00088CC4C44362151215131A9E6110221D0FD
:1042000011F9931F655CDC81E44148643C5A00214C
:10421000D11AF9931F2E4594844C444611611161C3
:1042200011611161116111F10821D210F9931F6D13
:1042300064C841E4815C7A940021D31CF9931F2C5B
:10424000222C222C222C222C222C2228221B09A9AF
:1042500088B878140021D414F9931F6544544CCCC9
:10426000455CC44DAA8878940021D51AF9931F2E75
:104270004594844C44461161114111D9484845C4C4
:10428000C5A30021D614F9931F9D4D48544C904C62
:104290008A989094F1280121D715F9931FA15548C8
:1042A000504C1A919888A890A078B40021D814F99D
:1042B000931F6592341131314231512131F6E800BA
:1042C00021D914F9931F6D504854444C884C462111
:1042D00051F6080121E612F9931F659C58C45D440C
:1042E0008489603C5A0021E719F9931F2E45544CEC
:1042F000CCC450445844584458445844D83C0221F3
:10430000E811F9931F6DA08845BA8B30B9789400F5
:1043100021E91AF9931F6C2C222C222C222C222CFE
:104320002268622655445C3C0A0025800AF993E124
:10433000FF1EC70025810AF9931F3F3E38202582C2
:104340000BF9931F5F1EFC200025830BF9931FCFF1
:104350000EFE410125840BF9931F3707FF07022545
:10436000850BF9931FCB83FF070425860BF9931F59
:10437000D9C1FF1F0425870BF9931FE6E0FF3F28F3
:1043800025880AF993E1FFFF0301258925F993E1C7
:1043900020E220E220E220E220E220E220E220E20D
:1043A00020E220E220E220E220E220E220020025BA
:1043B0008A0AF993E1E4FF9F00258B0AF993C1C6AD
:1043C000FFDF00258C0AF993A1A8FF1F01258D0AA4
:1043D000F993616CFF9F01258E0AF993414EFFDF2F
:1043E00001258F0AF9932130FF1F02259008F993C8
:1043F0008BFF3F259119F9932122A7119946E434A7
:1044000022D3889C46641A91D3882C00259210F9F7
:10441000932122FFFFFFFFFFFFFFFF0325931FF9FB
:1044200093E14022170713591C4CE4E260228B836E
:10443000895C1C4C647130918B030125940AF993BB
:10444000E1013D7E0C259508F99331FF3F25960B40
:10445000F9931F3745FD110025970AF9931F8754DB
:10446000FC0125980BF993A1A8DFE3050025990C21
:10447000F993A1A81F1DFC1F08259A0BF993A1A869
:104480005F52F107259B0BF993E1FFA0A83F02259E
:104490009C09F993E1FF8A7F259D0AF9938BBFC799
:1044A0003100259E0CF9938B5F1D08F54700259F71
:1044B0000BF9938B5F1DFC1F1825A00BF9931FDDD3
:1044C000C9BF470725A115F9931FDD495448544832
:1044D0005448544854C83D3A0025A215F9931F6129
:1044E0004D5448544854485448544C3D420025A328
:1044F00018F9931FDD495448C44448C44448C4448F
:104500004854C83D3A0025A413F9931FDD4954C807
:104510004954C84954C83D3A0025A516F9931FDDF2
:10452000494426119944641291494426F7E800252C
:10453000A614F9931FDD4944262711999C446472FF
:104540008F0E0025A714F9931FDD496E22426444A3
:1045500022624232B9470725A814F9931FDD492E7C
:104560006242644462224232B9470725A91AF9938C
:104570001FDD894484484C4488448448444C884422
:1045800084C83D3A0025AA0BF9931FE3B1F518033F
:1045900025AB0DF9931FE3B188B0798C0125AC0BE5
:1045A000F9931FFDC11FCC6325AD0DF9931FFDC10C
:1045B0009CBA83790C25AE0BF9931FBCA87F0F0E14
:1045C00025AF19F9931FBC28262826282628262837
:1045D0002628262826A81E1C0025B010F9931F8B1C
:1045E000838883071407F1580025B111F9931F8BB5
:1045F00083883039B18883782C0025B214F9931F51
:104600002E306E6CAAA8E6E4E2E0801E180025B306
:1046100019F9931F2E302E222C222A26282655489F
:104620005444DCC13C300025B410F9931F6960DCB0
:10463000D85451CD3D3A0025B514F9931F69605CFB
:10464000445844544C504CCC3D3A0025B614F99390
:104650001F588ECAE620E2E060C2864A1E1100257D
:10466000B718F9931F582E422A46264A224E4A224C
:104670004626424A1E110025B810F9931F5DE058E6
:10468000D149D1583C6A0025B913F9931F5DE05810
:104690008850904888D0583C6A0025BA0FF9931F7B
:1046A000FD98CDC141CC3C660025BB10F9931FFDA0
:1046B00058C84C14C9CC3C660025BC14F9931FE6BD
:1046C000E080E2E4A6A86A6C2E301E050025BD1924
:1046D000F9931FE6602E222A242A26514C5444586E
:1046E000445C603C0A0025BE10F9931FDD4D51D596
:1046F000D85C603C520025BF13F9931FDD4DA29892
:10470000A888B088B8C078A40025C014F9931F9178
:10471000148DC5C1C1C4418C159D3C300025C11804
:10472000F9931F9194448C4C84945C84548C4C94E5
:10473000449C3C300025C210F9931F75D850C951D4
:10474000D9603C3A0025C313F9931F75D890488867
:10475000509048D8603C3A0025C40EF9931FB39995
:10476000838318B3790C25C50FF9931FB39911AA48
:104770009891B0790C25C613F9931F45DC54CDC52B
:1047800081C44DD55C3C0A0025C717F9931F455CD1
:1047900044544CAA88B888A898541171F12800256F
:1047A000C818F9931F455C44544C921421231121DD
:1047B000695245C4C5A30025C913F9931FE5544C9C
:1047C000922C2642B249358F120025CA17F9931F41
:1047D00045605C445844544C544458445C603C0A22
:1047E0000025CB13F9931FE5544CAA90A890A898E4
:1047F00054F3280125CC11F9931F69584C7054705B
:104800004C583C520025CD16F9931FE594844C4436
:1048100026119944642321358F120025CE12F99375
:104820001FE5544C922C32C926D53C4A0025CF0FA7
:10483000F9931FE554CDC99BAA79940025D015F9A9
:10484000931FE5D4440C4908490849CC44D43C4A58
:104850000025D115F9931FE554C44C0849084908AF
:104860004DC4D43C4A0025D210F9931FE5544CAAFC
:10487000903755F3280125D311F9931FE554CDC97D
:1048800049544CAA79940025D414F9931FE554C4D3
:104890004C08490849544CAA79940025D511F9933C
:1048A0001FE554C44C08C99BAA79940025D60EF97B
:1048B000931FA5D8146773F2480125D70FF9931FEA
:1048C000A9DC1815AB3179940025D80FF993E11FB5
:1048D000D854B1AA39F8030325D915F993E10F6823
:1048E0002A565448544854ACA839F8010125DA1125
:1048F000F993E10F682A56544854C4E3060025DBB7
:1049000010F9931F37111512152B6A0E7E4025DC06
:104910000DF9931FA5585C603C4E0125DD0CF99301
:104920001FA964C2781C0125DE0DF9931FA78171B0
:1049300061F2280125DF0DF9931F47819191F2481B
:104940000125E00FF9931FE5544CAA90A8781C01AB
:1049500025E10FF9931F4751215131A9E651022555
:10496000E210F9931F759CD814518DC93D3A00256A
:10497000E310F9931F5DA0DC185591CD3D3A002559
:10498000E410F9931FDD894D11D5985C3C6A002530
:10499000E510F9931FDD8D5115D99C603C3A002537
:1049A000E611F9931F9BA998A098A098A8796C008C
:1049B00025E715F9931FDD09490849084908490801
:1049C00049C83D3A0025E815F9931FDD4908490813
:1049D000490849084908C93D3A0025E914F9931FD7
:1049E000DDC949450849C84C8850C83D3A0025EA08
:1049F00013F9931FDD499048CC48084944C97B749A
:104A00000025EB0EF9931FDD49FE7F728F0E002506
:104A1000EC1AF9931F2E302E222C222A2628224D02
:104A2000C44448167107F3C00025ED18F9931F2EF2
:104A3000306E6C6A22682286248424A2E6601E18E6
:104A40000025EE18F9931F2E306E6C2A622862261C
:104A500084248422E6E01E180025EF12F9931FBC7F
:104A6000262A224E77115131F5E00025F012F993F4
:104A70001FDD493E2149151215728F0E0025F112D6
:104A8000F9931FDD4954485408497E728F0E002562
:104A9000F212F9931FDD495448544808493EB9477A
:104AA0000725F312F9931FDD497E42121512157284
:104AB0008F0E0025F412F9931F614D489E90A40AB1
:104AC000898AA9470825F512F9931F614D54485466
:104AD00008497E538F100025F612F9931F614D543B
:104AE0004854480849BEA9470825F712F9931F61A1
:104AF0004D483E21890A898AA9470825F811F9936A
:104B00001F0B9B442151116172F1A80125F912F983
:104B1000931F0BA398A890B08838C178840025FA19
:104B200012F9931F8B40B988B090A898207B84001D
:104B300025FB13F9931F0B9BA098A098A098A01891
:104B40007B840025FC0BF9931F0B1BBF470825FD39
:104B500011F9931FDBA298A098A098A07A84002551
:104B6000FE0BF9931FDBA2DE230425FF12F9931F2E
:104B7000B338B188A890A098187B8400260014F957
:104B8000931F2E2AD15449444548D550547AA40045
:104B900026010CF9931FA558CD3DAE01260211F94F
:104BA000931F2EACE62A30B388B878B40026031CD5
:104BB000F99327229329098990989088AC22D2648E
:104BC000921549563115F1C00026041BF9933D2E6C
:104BD000302428242A244822242224459048509214
:104BE00030792400260515F9931F4560DCCC81C47B
:104BF0004D91848C92A8786800260616F9931F457B
:104C0000605C440C0545544C26596422230F0D2644
:104C1000070FF9931F515C2E53C489CD4303260817
:104C20001AF9931FFA242826514854445848544CE2
:104C300044489048CC3C3400260911F9931F9BA9A5
:104C4000985421B98A49358F00260A14F9931FE533
:104C5000544CAA90A890A8982CB2490F0E260B1479
:104C6000F9931F614C8A6CB20A890A898A49358F87
:104C700000260C13F9931FA3C0B0A998A098A09880
:104C8000A8791400260D19F9937B2A2628262826B0
:104C90006A2C6C2A26282628266A1E0500260E174E
:104CA000F9931FBCE6428A6242444246898C04C59D
:104CB000813D3000260F15F9931F614D5444C8887B
:104CC00044FE248BB88379600026101CF993F524E8
:104CD0002A242A242A242A242A242A242A242A2464
:104CE0002AE41E1A00261121F993F5242A244824C7
:104CF00048242622242622442224442224454C48A7
:104D0000444CC83D340026121BF993F544464446F2
:104D1000242293884C729149442632223222F7D0C1
:104D20000026131BF9931F2A2628262A222C222E1E
:104D3000302E222C222A2628261E1C00261619F97F
:104D4000931F2E45544C504CAA90A890A890A89020
:104D5000A8907B680026170FF9931F2E6EAAA8E66D
:104D6000E4EFA101261913F9931FE9548DC9894D68
:104D700045CC48983C3800261A11F9931FFD410C88
:104D800045D04450953C3600261B11F9931FFD4138
:104D900044044DC450993C5600261C11F9931FFD44
:104DA000414C509AA01029796C00261D15F9931FCB
:104DB00071609C9444504C504C5448143D3800262B
:104DC0001E11F9931FFD4144504C22913079AC00E3
:104DD000261F14F9931F255548504C504C94449C61
:104DE000607A7000265419F9933B6E2824C9C44890
:104DF0005448544CA298A0985421F7D00026551A34
:104E0000F9933B2E224846242293A890A898443137
:104E10004131A942EEA10126561BF9931F286222B7
:104E20006462242A242A26514C504C504CAA907B70
:104E30006800265718F9931F2E45544C504C504C7F
:104E4000504CD4544CAA907B680026581AF9931FF2
:104E5000328822242A242A46262A242826514854E5
:104E6000C83D3400265915F9931FA5584854489851
:104E700058485448501A7B7000265A11F9933B6EDB
:104E80002824C937456D4EEEA101265B12F9933BEC
:104E90006EE824229337456D4EEEA101265C11F990
:104EA000931F286222E49BA26E4EEEA101265D14A0
:104EB000F9931F2E6E6A226822A8D554CDC93D34BD
:104EC00000265E13F9931F32C88442E4C68AA8C63E
:104ED000E43D3400265F11F9931FA51815991815A4
:104EE000918D3D3800266013F9933B6E6CAAA8E6BD
:104EF000E4A62C6EAA1E1C00266119F993574226BF
:104F0000245F8544C5248A098A898A088B888B474F
:104F10000126621AF9933B2E222C222A2628265596
:104F20004CA298A888B088B8781400266316F99324
:104F30003B6EAAA8266222E2E08185448454DC3CD0
:104F40000226641BF9933B2E222C222A2628265562
:104F500048548C845444544CCC3D3400266511F99B
:104F6000935742E6E49BA2566373F128002666132A
:104F7000F9933B6E6CAAA8E6A6A86A6C2E1E0500E3
:104F800026671CF9933B2E222A26282666622224B5
:104F900022444E64244222422A6E1E01268011F9C8
:104FA000931FFA224E9B18397511F7D000268113F2
:104FB000F9931FFA224E224A4EAB08B9887B68004B
:104FC000268216F9931FFA224E224A4E26464E2A70
:104FD000422EE21E1A00268315F9931FFA224E2252
:104FE00026424E8B9808B9887B6800268418F9936E
:104FF0001FFA224E2226424E26464E2226422EE2FC
:105000001E1A00268519F9931FFA224E2226424EB7
:105010002226424E2226422EE21E1A00271312F9A1
:10502000931F5160BAC0208928893079A4002714C1
:1050300013F9931F8D9C323991099909212A7A1409
:1050400000271516F9931F5D54C4CCC49AAAA99AD7
:1050500089351351F14000271615F9931FD98CCDCE
:1050600005C5D1D005C541C4CD3C0C00271714F9A6
:10507000931F654C54445C8AA898A09884F16800FA
:10508000271814F9931FA1881099DC948490848CBC
:105090009C3C1200274F11F9931FF8242A248AAB55
:1050A0008392F7C000275010F9931FFCE4E0608A58
:1050B0005721F7E000275117F9931FD949944494D9
:1050C000449444944494C441C83D3400275217F991
:1050D000931FDDC54144944494449444944494C43F
:1050E0003D380000005F0203020404010205080DC0
:1050F00000FE09FE090001D703DC058F2008D8C196
:10510000E7FF3300210BD8C1A7E67DA7E4640022A6
:105110000CD8C1274661144639FF062312D8C1674F
:105120008DC2281BB6281BB6288C7256002412D8B4
:10513000C1A7C64396A4493C2769920D714E062526
:1051400012D8C12766511265519CC7A5302965390F
:10515000112611D8C1E7AC466194AA511265E192BB
:10516000D3002709D8C1A7E675FE15280FD8C1A717
:10517000C7799CD7913C47722200290ED8C127E6F7
:10518000489E2379398F73062A0ED8C12746A9383D
:105190008C6A94F30B002B0BD8C1E75E1DD43CE75F
:1051A000052C09D8C1E73FAE6A4E2D0AD8C1E7FBEE
:1051B000A0F30B002E0AD8C1E7BFC6738E022F0BD7
:1051C000D8C167C9E3BEE74C003013D8C1A7AA51C4
:1051D000164661144661146651AA5301310DD8C1B7
:1051E000A7C66A92F73AE844003211D8C1270E598F
:1051F0001885799CAA713EEC34003310D8C1A70DF4
:105200007B5CDE913C0AB32127023410D8C1A7C7CA
:105210006A124659B761CE7322003510D8C1A70D66
:10522000535ED9B4BC1466434E043611D8C1A78E60
:10523000715ED9B4288CC26CC88900370DD8C1A75B
:105240000D7B5C8FF338CF193814D8C1270E59184D
:105250008551980D59188551980D39113911D8C1BA
:10526000270E59188551A62D7939DCA9003A0DD899
:10527000C1E71ECF39533CE728003B0CD8C1E71EDD
:10528000CF39CBAAE6043C0FD8C16789BB2339923A
:10529000233992D3003D0BD8C1E779D889C3CE1505
:1052A0003E0FD8C1A7E5488EE4488EC4DD59003FC3
:1052B0000FD8C1270E591885795CCF2939154015AB
:1052C000D8C1270E5918855134255125912A518E60
:1052D0000C39114114D8C1A7AA511646611446C30E
:1052E00014466114E634004213D8C1A70D61568CF0
:1052F000B26C08B3629465434E05430ED8C1270EC5
:105300005918E53D66434E044414D8C1A70D6156B3
:105310008CC2288CC2288CB26CC8A900450FD8C199
:10532000A70D535E1FC2BC3EEC3400460DD8C1A78A
:105330000D535E1FC2BC9D054711D8C1270E5918D9
:10534000E54D531865DA92D3004814D8C1A78551AA
:10535000188551180D531885511885390D490CD8E9
:10536000C1A70D6ADED74127024A0CD8C1A70E6A31
:10537000DE5B71A7024B12D8C1A78551560A935420
:105380004ED228CC8A390D4C0BD8C1A7E5FD3EEC96
:1053900034004D14D8C127A5499A684A4F95A89260
:1053A000266992E634004E15D8C1A7855118695177
:1053B00012B5449914466114E634004F14D8C1273D
:1053C0000E59188551188551188551980D3911506D
:1053D00010D8C1A70D5A188551180D5ADECE0251AA
:1053E00016D8C1270E591885511885511825514BCB
:1053F00036E4480E015214D8C1A70D5A1885511829
:105400000D5A92466156CC69005313D8C1270E59E4
:1054100018E53932E4481E85D9901301540BD8C1E0
:10542000270D4398F73B195514D8C1A78551188506
:1054300051188551188551980D39115611D8C12729
:10544000A5491A653D26699226714E065714D8C1A2
:1054500027A5499AA4499A4495A812553A65391145
:105460005813D8C127A5491A65611257C22C4A930F
:1054700034A701590FD8C127A5491A656112E7DD84
:10548000C9005A0DD8C1A70D7BDC7B3EEC34005B14
:105490000CD8C1270E61DEF72127025C12D8C12784
:1054A000E5399223399223399223794E035D0BD843
:1054B000C1A70D793F0E39155E0CD8C1A7C6499812
:1054C000E5FC1B005F0AD8C1E7FF380C3904600A0D
:1054D000D8C1077324E77F066110D8C1E77DC89162
:1054E0006C90C228D3969C066211D8C1A7E52D9B6B
:1054F000168551186951B21301630ED8C1E77DC8F2
:10550000C2282F66434E046412D8C167C96B4B94FE
:105510004961144699B6E434006510D8C1E77DC8E6
:10552000C26898F2301B722200660DD8C1A78E594E
:105530003D1EC4BC9D016710D8C1E77D89B2C6314C
:1055400047862CCC86086811D8C1A7E52D9B168507
:105550005118855198D300690CD8C167CE71BDEB45
:10556000A013016A0CD8C1E792E37AB78E1B006BD7
:105570000FD8C1A7E56DA5708DC2AC98D3006C0B98
:10558000D8C127EAFD3AE844006D10D8C1E775910B
:105590005AA24A54892A694E036E10D8C1E739D9F4
:1055A000B4288CC2288CC29C066F10D8C1E77DC875
:1055B000C2288CC228CC869C087010D8C1E739D983
:1055C000B4288CB428D9F23200710FD8C1E77D8994
:1055D00032298C326DC95B00720BD8C1E73919B31F
:1055E0007A3B037310D8C1E77DC8C24C47B4301B67
:1055F000722200740DD8C167CDE341CCDBC29D0897
:10560000750BD8C1E739EB1F979C06760DD8C1E71B
:1056100039EB3149933827037710D8C1E7B5922683
:105620005125AA74CA722200780FD8C1E739CCA2DA
:105630005456A32CCC69007912D8C1E7398CC22802
:105640008C326DC9A3301B22007A0BD8C1E7799840
:105650003B0F3B0D7B10D8C1278F798EA43A12E700
:1056600039B2D3007C09D8C1A7E6FD9D0C7D10D8C6
:10567000C1A7ED481EE7889A2379B893017E0CD81C
:10568000C1274659528B72FE1100000004FFFF0033
:10569000005F0203020303010104050700FF06FF88
:1056A0000600012A0272039320057D7D1E21087DDC
:1056B000ADB01DCA0122097D9D5212253903230B6D
:1056C0007DED241994CAA0940124097DEDA5B62589
:1056D000C90C25097D8D30CA9AC218260A7DED2C89
:1056E000C92A59120327077DADB0CE0228087DAD27
:1056F0002C6CCD0129097D9D346CCB11002A097DCC
:10570000ED24CBB64A0C2B097DFD301AA430072CB2
:10571000077D7D16AD062D087D7DCA9093002E076E
:105720007D7DBAA6032F077D7D246B27300C7DADD0
:105730002C89922889922C0731087DAD4C6C9B01F5
:1057400032097D1DA998D58618330B7D8D218CD407
:10575000248A7400340B7DAD4C4AA2210B730035B2
:105760000B7D8D2109D7248A7400360A7D1D299C62
:105770002A51A403370B7D8D21CCC22CCC110038CB
:105780000A7D1DA92455A24807390A7D1DA9124585
:1057900063A4033A087D6D4D47341D3B097D6D4D73
:1057A00047B422003C087D7D24AB96013D097D7DF8
:1057B0006C88871C043E087DEDB45647003F0A7D87
:1057C000AD2C09B31CCA01400B7D1DA992288992FA
:1057D000EA00410C7D1DA91225431225510C420AF5
:1057E0007D8DA93255A2640743097D1DA912962219
:1057F0001D440C7D8DA912255112253B00450B7DC2
:105800008D2109A7301C6200460A7D8D2109A7B0B1
:105810000E01470B7D1DA912264A14CD00480E7DAE
:105820008D2889922189922889620049087D9D2DC1
:105830006C9B014A097DBDB0258A74004B0B7D8DA0
:105840002829695A1295014C087D8DB0E310034D4B
:105850000E7D8D281992218992288962004E0D7D36
:105860008D285112A5A2244A14034F0C7D1DA912A4
:10587000255112453A00500B7D8DA91225539843AE
:1058800000510C7D1DA9122551A2446A02520B7DC4
:105890008DA912255312950153097D1DA9352AE9B9
:1058A0000054077D9D2DEC0E550D7D8D2889922885
:1058B000899228D201560C7D8D2889922889224D03
:1058C00007570E7D8D2889922819922189620058E8
:1058D0000C7D8D2889224DAA443100590A7D9D52A4
:1058E00012255958075A097D8D21CC1A87185B0853
:1058F0007D9D296C9C015C077DDDEE20005D077DB0
:105900009DB1D30C5E087DAD2CC959015F077D7D2B
:10591000C6210660077D9D346706610B7D7D708919
:1059200092444A6200620A7D8D309C2A51B2036320
:10593000087D7D500A531D640B7DBD305AA2248A18
:10594000660065097D7D504A8C3A00660B7DAD2C62
:1059500089B22DCC1100670A7D7D708922295D00F6
:10596000680B7D8D309C2A5112C50069097DAD1CE4
:10597000116B33006A0A7DBD1C0A4B4916016B0A84
:105980007D8DB012694954066C077D1DB1DB0C6D2D
:105990000B7D7D2C8986244AA2186E0A7D7D6CAA17
:1059A000444914036F097D7D50AA44910E700A7D0D
:1059B0007D6CAA44C91402710B7D7D708992281AEE
:1059C000130072097D7D6CAA84390473087D7D7093
:1059D00051951D74097D9D30DBC25406750B7D7D8C
:1059E0002C4AA2248A6600760B7D7D30899228C9D4
:1059F0007200770B7D7D2C4AA26448861878097D59
:105A00007D2C8A34A90C790A7D7D2C4AA24A560342
:105A10007A097D7D6CC86A430C7B087DBD9A588DE0
:105A2000017C077DADB077007D0A7D9D34D4C22C0A
:105A300047007E077D9DEECC0000000004FFFF00C4
:105A40000000F35911241FBECFEFCDBFDFE7DEBF4B
:105A500013E4A0E0B0E4EAE6F1EF00E00BBF02C01F
:105A600007900D92A83CB107D9F725E5A8ECB3E45F
:105A700001C01D92AF36B207E1F71DE2C2E2DDE2DE
:105A800004C02197FE010E949178C132D107C9F765
:105A90000E94795E0C94B3780C940001662329F07F
:105AA0006A3019F0862F90E008958FEF9FEF0895E8
:105AB000AF92BF92CF92DF92EF92FF920F93CF936C
:105AC000DF93EC01DA017901942F9770E1E0F0E0C7
:105AD0009F01092E01C0220F0A94EAF7522F6E018E
:105AE0008AE8C80ED11CF601808140E0823018F4AB
:105AF000422F813049F15D01F8EFAF22E8ADF9ADF9
:105B000028813981D90150968C918A9D90018B9D75
:105B1000300D1124620F731FDF01A60FB71F011193
:105B20001AC0EA0EFB1E8C91842B85278D93AE152F
:105B3000BF05C9F7DF91CF910F91FF90EF90DF90F4
:105B4000CF90BF90AF90089550E0D5CF440F550F40
:105B5000E114F10479F33C91342B35273C939F5F9A
:105B60009770E1E0EE1AF1089111F0CF2CAD3DAD48
:105B7000A20FB31FF6018081823028F4813009F032
:105B800051E041E0E5CF51E0E3CF80E0089590E0BF
:105B900080E00895E091AB51F091AC5130E020E00D
:105BA000482F6EE087EA91E509940F931F93CF93F6
:105BB000DF938C01D0E0C0E0D80118968C91189743
:105BC0008C171D06B1F0ACF01696ED91FC91CE014C
:105BD000880F991FE80FF91F80819181DC01ED91F9
:105BE000FC910680F781E02D0995882339F0F801B2
:105BF000C287DF91CF911F910F9108952196DCCF3D
:105C0000CF93DF93C3EAD1E58FAFEAADFBAD01904F
:105C1000F081E02D87EA91E50995EAADFBAD0280C0
:105C2000F381E02D87EA91E5DF91CF910994FC01A2
:105C3000A385B4859C919430E0F02091C6019370C7
:105C4000990F43E050E001C0440F9A95EAF7922F74
:105C5000942B9093C6010384F485E02DE081F0E05D
:105C6000EE0FFF1FE154FA4B88E49AE4808391839E
:105C700008952091C501990F43E050E001C0440F01
:105C80009A95EAF7922F942B9093C501E4CFFC01EB
:105C90009081907381F1442371F1DB0112964C9352
:105CA0008081853201F5413039F4605F7F4FFB011F
:105CB0008081877F80830895423019F46F5E7F4F23
:105CC000F6CF443019F46E5E7F4FF1CF483019F4AF
:105CD0006D5E7F4FECCF403419F46A5E7F4FE7CFA3
